{
  "contractName": "Market",
  "abi": [
    {
      "constant": true,
      "inputs": [
        {
          "internalType": "string",
          "name": "",
          "type": "string"
        }
      ],
      "name": "projectsMarket",
      "outputs": [
        {
          "internalType": "contract Proj",
          "name": "",
          "type": "address"
        }
      ],
      "payable": false,
      "stateMutability": "view",
      "type": "function"
    },
    {
      "constant": false,
      "inputs": [
        {
          "internalType": "string",
          "name": "_name",
          "type": "string"
        },
        {
          "internalType": "string",
          "name": "_description",
          "type": "string"
        },
        {
          "internalType": "uint8",
          "name": "_decimals",
          "type": "uint8"
        },
        {
          "internalType": "uint256",
          "name": "_price",
          "type": "uint256"
        }
      ],
      "name": "createProject",
      "outputs": [],
      "payable": false,
      "stateMutability": "nonpayable",
      "type": "function"
    },
    {
      "constant": true,
      "inputs": [
        {
          "internalType": "string",
          "name": "_name",
          "type": "string"
        }
      ],
      "name": "getProjectInfo",
      "outputs": [
        {
          "internalType": "string",
          "name": "",
          "type": "string"
        },
        {
          "internalType": "string",
          "name": "",
          "type": "string"
        },
        {
          "internalType": "string",
          "name": "",
          "type": "string"
        },
        {
          "internalType": "uint256",
          "name": "",
          "type": "uint256"
        },
        {
          "internalType": "string",
          "name": "",
          "type": "string"
        },
        {
          "internalType": "uint256",
          "name": "",
          "type": "uint256"
        }
      ],
      "payable": false,
      "stateMutability": "view",
      "type": "function"
    },
    {
      "constant": true,
      "inputs": [
        {
          "internalType": "string",
          "name": "_name",
          "type": "string"
        }
      ],
      "name": "getAmountOfShares",
      "outputs": [
        {
          "internalType": "uint256",
          "name": "",
          "type": "uint256"
        }
      ],
      "payable": false,
      "stateMutability": "view",
      "type": "function"
    },
    {
      "constant": true,
      "inputs": [
        {
          "internalType": "string",
          "name": "_name",
          "type": "string"
        }
      ],
      "name": "getProjectPrice",
      "outputs": [
        {
          "internalType": "uint256",
          "name": "",
          "type": "uint256"
        }
      ],
      "payable": false,
      "stateMutability": "view",
      "type": "function"
    },
    {
      "constant": true,
      "inputs": [
        {
          "internalType": "string",
          "name": "_name",
          "type": "string"
        },
        {
          "internalType": "address",
          "name": "account",
          "type": "address"
        }
      ],
      "name": "getBalance",
      "outputs": [
        {
          "internalType": "uint256",
          "name": "",
          "type": "uint256"
        }
      ],
      "payable": false,
      "stateMutability": "view",
      "type": "function"
    },
    {
      "constant": false,
      "inputs": [
        {
          "internalType": "string",
          "name": "_name",
          "type": "string"
        },
        {
          "internalType": "address",
          "name": "buyer",
          "type": "address"
        },
        {
          "internalType": "uint256",
          "name": "amount",
          "type": "uint256"
        }
      ],
      "name": "sellTokens",
      "outputs": [],
      "payable": false,
      "stateMutability": "nonpayable",
      "type": "function"
    },
    {
      "constant": false,
      "inputs": [
        {
          "internalType": "string",
          "name": "_name",
          "type": "string"
        },
        {
          "internalType": "address",
          "name": "seller",
          "type": "address"
        },
        {
          "internalType": "uint256",
          "name": "amount",
          "type": "uint256"
        }
      ],
      "name": "buyTokens",
      "outputs": [],
      "payable": false,
      "stateMutability": "nonpayable",
      "type": "function"
    }
  ],
  "bytecode": "0x608060405234801561001057600080fd5b5061341c806100206000396000f3fe60806040523480156200001157600080fd5b5060043610620000945760003560e01c80636a70a71f11620000635780636a70a71f146200044557806389f4b317146200051a578063d38c4fbe146200060f578063f339118d14620007815762000094565b80632a694800146200009957806338c660c2146200018457806341f8089c1462000259578063441294fb1462000344575b600080fd5b6200018260048036036060811015620000b157600080fd5b8101908080359060200190640100000000811115620000cf57600080fd5b820183602082011115620000e257600080fd5b803590602001918460018302840111640100000000831117156200010557600080fd5b91908080601f016020809104026020016040519081016040528093929190818152602001838380828437600081840152601f19601f820116905080830192505050505050509192919290803573ffffffffffffffffffffffffffffffffffffffff1690602001909291908035906020019092919050505062000a19565b005b62000243600480360360208110156200019c57600080fd5b8101908080359060200190640100000000811115620001ba57600080fd5b820183602082011115620001cd57600080fd5b80359060200191846001830284011164010000000083111715620001f057600080fd5b91908080601f016020809104026020016040519081016040528093929190818152602001838380828437600081840152601f19601f82011690508083019250505050505050919291929050505062000d08565b6040518082815260200191505060405180910390f35b62000342600480360360608110156200027157600080fd5b81019080803590602001906401000000008111156200028f57600080fd5b820183602082011115620002a257600080fd5b80359060200191846001830284011164010000000083111715620002c557600080fd5b91908080601f016020809104026020016040519081016040528093929190818152602001838380828437600081840152601f19601f820116905080830192505050505050509192919290803573ffffffffffffffffffffffffffffffffffffffff1690602001909291908035906020019092919050505062000e1f565b005b62000403600480360360208110156200035c57600080fd5b81019080803590602001906401000000008111156200037a57600080fd5b8201836020820111156200038d57600080fd5b80359060200191846001830284011164010000000083111715620003b057600080fd5b91908080601f016020809104026020016040519081016040528093929190818152602001838380828437600081840152601f19601f82011690508083019250505050505050919291929050505062001140565b604051808273ffffffffffffffffffffffffffffffffffffffff1673ffffffffffffffffffffffffffffffffffffffff16815260200191505060405180910390f35b62000504600480360360208110156200045d57600080fd5b81019080803590602001906401000000008111156200047b57600080fd5b8201836020820111156200048e57600080fd5b80359060200191846001830284011164010000000083111715620004b157600080fd5b91908080601f016020809104026020016040519081016040528093929190818152602001838380828437600081840152601f19601f82011690508083019250505050505050919291929050505062001189565b6040518082815260200191505060405180910390f35b620005f9600480360360408110156200053257600080fd5b81019080803590602001906401000000008111156200055057600080fd5b8201836020820111156200056357600080fd5b803590602001918460018302840111640100000000831117156200058657600080fd5b91908080601f016020809104026020016040519081016040528093929190818152602001838380828437600081840152601f19601f820116905080830192505050505050509192919290803573ffffffffffffffffffffffffffffffffffffffff169060200190929190505050620012a0565b6040518082815260200191505060405180910390f35b6200077f600480360360808110156200062757600080fd5b81019080803590602001906401000000008111156200064557600080fd5b8201836020820111156200065857600080fd5b803590602001918460018302840111640100000000831117156200067b57600080fd5b91908080601f016020809104026020016040519081016040528093929190818152602001838380828437600081840152601f19601f82011690508083019250505050505050919291929080359060200190640100000000811115620006df57600080fd5b820183602082011115620006f257600080fd5b803590602001918460018302840111640100000000831117156200071557600080fd5b91908080601f016020809104026020016040519081016040528093929190818152602001838380828437600081840152601f19601f820116905080830192505050505050509192919290803560ff16906020019092919080359060200190929190505050620013ef565b005b62000840600480360360208110156200079957600080fd5b8101908080359060200190640100000000811115620007b757600080fd5b820183602082011115620007ca57600080fd5b80359060200191846001830284011164010000000083111715620007ed57600080fd5b91908080601f016020809104026020016040519081016040528093929190818152602001838380828437600081840152601f19601f820116905080830192505050505050509192919290505050620015c9565b604051808060200180602001806020018781526020018060200186815260200185810385528b818151815260200191508051906020019080838360005b838110156200089a5780820151818401526020810190506200087d565b50505050905090810190601f168015620008c85780820380516001836020036101000a031916815260200191505b5085810384528a818151815260200191508051906020019080838360005b8381101562000903578082015181840152602081019050620008e6565b50505050905090810190601f168015620009315780820380516001836020036101000a031916815260200191505b50858103835289818151815260200191508051906020019080838360005b838110156200096c5780820151818401526020810190506200094f565b50505050905090810190601f1680156200099a5780820380516001836020036101000a031916815260200191505b50858103825287818151815260200191508051906020019080838360005b83811015620009d5578082015181840152602081019050620009b8565b50505050905090810190601f16801562000a035780820380516001836020036101000a031916815260200191505b509a505050505050505050505060405180910390f35b6000811162000a90576040517f08c379a000000000000000000000000000000000000000000000000000000000815260040180806020018281038252601f8152602001807f416d6f756e742073686f756c642062652067726561746572207468616e20300081525060200191505060405180910390fd5b600062000a9d8462001189565b9050600062000aac8562000d08565b9050600083820390506000866040518082805190602001908083835b6020831062000aed578051825260208201915060208101905060208303925062000ac8565b6001836020036101000a038019825116818451168082178552505050505050905001915050908152602001604051809103902060009054906101000a900473ffffffffffffffffffffffffffffffffffffffff1673ffffffffffffffffffffffffffffffffffffffff1663a9059cbb868686026040518363ffffffff1660e01b8152600401808373ffffffffffffffffffffffffffffffffffffffff1673ffffffffffffffffffffffffffffffffffffffff16815260200182815260200192505050602060405180830381600087803b15801562000bca57600080fd5b505af115801562000bdf573d6000803e3d6000fd5b505050506040513d602081101562000bf657600080fd5b8101908080519060200190929190505050506000866040518082805190602001908083835b6020831062000c40578051825260208201915060208101905060208303925062000c1b565b6001836020036101000a038019825116818451168082178552505050505050905001915050908152602001604051809103902060009054906101000a900473ffffffffffffffffffffffffffffffffffffffff1673ffffffffffffffffffffffffffffffffffffffff1663191f883a826040518263ffffffff1660e01b815260040180828152602001915050600060405180830381600087803b15801562000ce757600080fd5b505af115801562000cfc573d6000803e3d6000fd5b50505050505050505050565b600080826040518082805190602001908083835b6020831062000d41578051825260208201915060208101905060208303925062000d1c565b6001836020036101000a038019825116818451168082178552505050505050905001915050908152602001604051809103902060009054906101000a900473ffffffffffffffffffffffffffffffffffffffff1673ffffffffffffffffffffffffffffffffffffffff166384094a676040518163ffffffff1660e01b815260040160206040518083038186803b15801562000ddb57600080fd5b505afa15801562000df0573d6000803e3d6000fd5b505050506040513d602081101562000e0757600080fd5b81019080805190602001909291905050509050919050565b6000811162000e96576040517f08c379a000000000000000000000000000000000000000000000000000000000815260040180806020018281038252601f8152602001807f416d6f756e742073686f756c642062652067726561746572207468616e20300081525060200191505060405180910390fd5b600062000ea38462001189565b9050600062000eb28562000d08565b9050600083820190506000866040518082805190602001908083835b6020831062000ef3578051825260208201915060208101905060208303925062000ece565b6001836020036101000a038019825116818451168082178552505050505050905001915050908152602001604051809103902060009054906101000a900473ffffffffffffffffffffffffffffffffffffffff1673ffffffffffffffffffffffffffffffffffffffff166323b872dd8632866040518463ffffffff1660e01b8152600401808473ffffffffffffffffffffffffffffffffffffffff1673ffffffffffffffffffffffffffffffffffffffff1681526020018373ffffffffffffffffffffffffffffffffffffffff1673ffffffffffffffffffffffffffffffffffffffff1681526020018281526020019350505050602060405180830381600087803b1580156200100257600080fd5b505af115801562001017573d6000803e3d6000fd5b505050506040513d60208110156200102e57600080fd5b8101908080519060200190929190505050506000866040518082805190602001908083835b6020831062001078578051825260208201915060208101905060208303925062001053565b6001836020036101000a038019825116818451168082178552505050505050905001915050908152602001604051809103902060009054906101000a900473ffffffffffffffffffffffffffffffffffffffff1673ffffffffffffffffffffffffffffffffffffffff1663191f883a826040518263ffffffff1660e01b815260040180828152602001915050600060405180830381600087803b1580156200111f57600080fd5b505af115801562001134573d6000803e3d6000fd5b50505050505050505050565b6000818051602081018201805184825260208301602085012081835280955050505050506000915054906101000a900473ffffffffffffffffffffffffffffffffffffffff1681565b600080826040518082805190602001908083835b60208310620011c257805182526020820191506020810190506020830392506200119d565b6001836020036101000a038019825116818451168082178552505050505050905001915050908152602001604051809103902060009054906101000a900473ffffffffffffffffffffffffffffffffffffffff1673ffffffffffffffffffffffffffffffffffffffff1663a035b1fe6040518163ffffffff1660e01b815260040160206040518083038186803b1580156200125c57600080fd5b505afa15801562001271573d6000803e3d6000fd5b505050506040513d60208110156200128857600080fd5b81019080805190602001909291905050509050919050565b600080836040518082805190602001908083835b60208310620012d95780518252602082019150602081019050602083039250620012b4565b6001836020036101000a038019825116818451168082178552505050505050905001915050908152602001604051809103902060009054906101000a900473ffffffffffffffffffffffffffffffffffffffff1673ffffffffffffffffffffffffffffffffffffffff166370a08231836040518263ffffffff1660e01b8152600401808273ffffffffffffffffffffffffffffffffffffffff1673ffffffffffffffffffffffffffffffffffffffff16815260200191505060206040518083038186803b158015620013aa57600080fd5b505afa158015620013bf573d6000803e3d6000fd5b505050506040513d6020811015620013d657600080fd5b8101908080519060200190929190505050905092915050565b600084848484604051620014039062001a13565b8080602001806020018560ff1660ff168152602001848152602001838103835287818151815260200191508051906020019080838360005b83811015620014585780820151818401526020810190506200143b565b50505050905090810190601f168015620014865780820380516001836020036101000a031916815260200191505b50838103825286818151815260200191508051906020019080838360005b83811015620014c1578082015181840152602081019050620014a4565b50505050905090810190601f168015620014ef5780820380516001836020036101000a031916815260200191505b509650505050505050604051809103906000f08015801562001515573d6000803e3d6000fd5b509050806000866040518082805190602001908083835b602083106200155157805182526020820191506020810190506020830392506200152c565b6001836020036101000a038019825116818451168082178552505050505050905001915050908152602001604051809103902060006101000a81548173ffffffffffffffffffffffffffffffffffffffff021916908373ffffffffffffffffffffffffffffffffffffffff1602179055505050505050565b606080606060006060600080876040518082805190602001908083835b602083106200160b5780518252602082019150602081019050602083039250620015e6565b6001836020036101000a038019825116818451168082178552505050505050905001915050908152602001604051809103902060009054906101000a900473ffffffffffffffffffffffffffffffffffffffff1673ffffffffffffffffffffffffffffffffffffffff166306fdde036040518163ffffffff1660e01b815260040160006040518083038186803b158015620016a557600080fd5b505afa158015620016ba573d6000803e3d6000fd5b505050506040513d6000823e3d601f19601f820116820180604052506020811015620016e557600080fd5b81019080805160405193929190846401000000008211156200170657600080fd5b838201915060208201858111156200171d57600080fd5b82518660018202830111640100000000821117156200173b57600080fd5b8083526020830192505050908051906020019080838360005b838110156200177157808201518184015260208101905062001754565b50505050905090810190601f1680156200179f5780820380516001836020036101000a031916815260200191505b506040525050506000886040518082805190602001908083835b60208310620017de5780518252602082019150602081019050602083039250620017b9565b6001836020036101000a038019825116818451168082178552505050505050905001915050908152602001604051809103902060009054906101000a900473ffffffffffffffffffffffffffffffffffffffff1673ffffffffffffffffffffffffffffffffffffffff166395d89b416040518163ffffffff1660e01b815260040160006040518083038186803b1580156200187857600080fd5b505afa1580156200188d573d6000803e3d6000fd5b505050506040513d6000823e3d601f19601f820116820180604052506020811015620018b857600080fd5b8101908080516040519392919084640100000000821115620018d957600080fd5b83820191506020820185811115620018f057600080fd5b82518660018202830111640100000000821117156200190e57600080fd5b8083526020830192505050908051906020019080838360005b838110156200194457808201518184015260208101905062001927565b50505050905090810190601f168015620019725780820380516001836020036101000a031916815260200191505b50604052505050620019848962001189565b6200198f8a62000d08565b6040518060400160405280600f81526020017f50726f6a6563742070726963653a20000000000000000000000000000000000081525091906040518060400160405280601281526020017f416d6f756e74206f66207368617265733a2000000000000000000000000000008152509095509550955095509550955091939550919395565b6119c68062001a228339019056fe60806040523480156200001157600080fd5b50604051620019c6380380620019c6833981810160405260808110156200003757600080fd5b81019080805160405193929190846401000000008211156200005857600080fd5b838201915060208201858111156200006f57600080fd5b82518660018202830111640100000000821117156200008d57600080fd5b8083526020830192505050908051906020019080838360005b83811015620000c3578082015181840152602081019050620000a6565b50505050905090810190601f168015620000f15780820380516001836020036101000a031916815260200191505b50604052602001805160405193929190846401000000008211156200011557600080fd5b838201915060208201858111156200012c57600080fd5b82518660018202830111640100000000821117156200014a57600080fd5b8083526020830192505050908051906020019080838360005b838110156200018057808201518184015260208101905062000163565b50505050905090810190601f168015620001ae5780820380516001836020036101000a031916815260200191505b5060405260200180519060200190929190805190602001909291905050508383838260039080519060200190620001e792919062000720565b5081600490805190602001906200020092919062000720565b5080600560006101000a81548160ff021916908360ff1602179055505050508160ff166007819055508060068190555062000265620002446200028560201b60201c565b620002546200028d60201b60201c565b60ff168302620002a460201b60201c565b6200027a328360ff166200046e60201b60201c565b5050505050620007cf565b600033905090565b6000600560009054906101000a900460ff16905090565b600073ffffffffffffffffffffffffffffffffffffffff168273ffffffffffffffffffffffffffffffffffffffff16141562000348576040517f08c379a000000000000000000000000000000000000000000000000000000000815260040180806020018281038252601f8152602001807f45524332303a206d696e7420746f20746865207a65726f20616464726573730081525060200191505060405180910390fd5b62000364816002546200049c60201b62000fe31790919060201c565b600281905550620003c2816000808573ffffffffffffffffffffffffffffffffffffffff1673ffffffffffffffffffffffffffffffffffffffff168152602001908152602001600020546200049c60201b62000fe31790919060201c565b6000808473ffffffffffffffffffffffffffffffffffffffff1673ffffffffffffffffffffffffffffffffffffffff168152602001908152602001600020819055508173ffffffffffffffffffffffffffffffffffffffff16600073ffffffffffffffffffffffffffffffffffffffff167fddf252ad1be2c89b69c2b068fc378daa952ba7f163c4a11628f55a4df523b3ef836040518082815260200191505060405180910390a35050565b600062000492620004846200028560201b60201c565b84846200052560201b60201c565b6001905092915050565b6000808284019050838110156200051b576040517f08c379a000000000000000000000000000000000000000000000000000000000815260040180806020018281038252601b8152602001807f536166654d6174683a206164646974696f6e206f766572666c6f77000000000081525060200191505060405180910390fd5b8091505092915050565b600073ffffffffffffffffffffffffffffffffffffffff168373ffffffffffffffffffffffffffffffffffffffff161415620005ad576040517f08c379a0000000000000000000000000000000000000000000000000000000008152600401808060200182810382526024815260200180620019a26024913960400191505060405180910390fd5b600073ffffffffffffffffffffffffffffffffffffffff168273ffffffffffffffffffffffffffffffffffffffff16141562000635576040517f08c379a0000000000000000000000000000000000000000000000000000000008152600401808060200182810382526022815260200180620019806022913960400191505060405180910390fd5b80600160008573ffffffffffffffffffffffffffffffffffffffff1673ffffffffffffffffffffffffffffffffffffffff16815260200190815260200160002060008473ffffffffffffffffffffffffffffffffffffffff1673ffffffffffffffffffffffffffffffffffffffff168152602001908152602001600020819055508173ffffffffffffffffffffffffffffffffffffffff168373ffffffffffffffffffffffffffffffffffffffff167f8c5be1e5ebec7d5bd14f71427d1e84f3dd0314c0f7b2291e5b200ac8c7c3b925836040518082815260200191505060405180910390a3505050565b828054600181600116156101000203166002900490600052602060002090601f016020900481019282601f106200076357805160ff191683800117855562000794565b8280016001018555821562000794579182015b828111156200079357825182559160200191906001019062000776565b5b509050620007a39190620007a7565b5090565b620007cc91905b80821115620007c8576000816000905550600101620007ae565b5090565b90565b6111a180620007df6000396000f3fe608060405234801561001057600080fd5b50600436106100ea5760003560e01c806370a082311161008c578063a035b1fe11610066578063a035b1fe1461042d578063a457c2d71461044b578063a9059cbb146104b1578063dd62ed3e14610517576100ea565b806370a082311461033457806384094a671461038c57806395d89b41146103aa576100ea565b8063191f883a116100c8578063191f883a146101f657806323b872dd14610224578063313ce567146102aa57806339509351146102ce576100ea565b806306fdde03146100ef578063095ea7b31461017257806318160ddd146101d8575b600080fd5b6100f761058f565b6040518080602001828103825283818151815260200191508051906020019080838360005b8381101561013757808201518184015260208101905061011c565b50505050905090810190601f1680156101645780820380516001836020036101000a031916815260200191505b509250505060405180910390f35b6101be6004803603604081101561018857600080fd5b81019080803573ffffffffffffffffffffffffffffffffffffffff16906020019092919080359060200190929190505050610631565b604051808215151515815260200191505060405180910390f35b6101e061064f565b6040518082815260200191505060405180910390f35b6102226004803603602081101561020c57600080fd5b8101908080359060200190929190505050610659565b005b6102906004803603606081101561023a57600080fd5b81019080803573ffffffffffffffffffffffffffffffffffffffff169060200190929190803573ffffffffffffffffffffffffffffffffffffffff16906020019092919080359060200190929190505050610663565b604051808215151515815260200191505060405180910390f35b6102b261073c565b604051808260ff1660ff16815260200191505060405180910390f35b61031a600480360360408110156102e457600080fd5b81019080803573ffffffffffffffffffffffffffffffffffffffff16906020019092919080359060200190929190505050610753565b604051808215151515815260200191505060405180910390f35b6103766004803603602081101561034a57600080fd5b81019080803573ffffffffffffffffffffffffffffffffffffffff169060200190929190505050610806565b6040518082815260200191505060405180910390f35b61039461084e565b6040518082815260200191505060405180910390f35b6103b2610854565b6040518080602001828103825283818151815260200191508051906020019080838360005b838110156103f25780820151818401526020810190506103d7565b50505050905090810190601f16801561041f5780820380516001836020036101000a031916815260200191505b509250505060405180910390f35b6104356108f6565b6040518082815260200191505060405180910390f35b6104976004803603604081101561046157600080fd5b81019080803573ffffffffffffffffffffffffffffffffffffffff169060200190929190803590602001909291905050506108fc565b604051808215151515815260200191505060405180910390f35b6104fd600480360360408110156104c757600080fd5b81019080803573ffffffffffffffffffffffffffffffffffffffff169060200190929190803590602001909291905050506109c9565b604051808215151515815260200191505060405180910390f35b6105796004803603604081101561052d57600080fd5b81019080803573ffffffffffffffffffffffffffffffffffffffff169060200190929190803573ffffffffffffffffffffffffffffffffffffffff1690602001909291905050506109e7565b6040518082815260200191505060405180910390f35b606060038054600181600116156101000203166002900480601f0160208091040260200160405190810160405280929190818152602001828054600181600116156101000203166002900480156106275780601f106105fc57610100808354040283529160200191610627565b820191906000526020600020905b81548152906001019060200180831161060a57829003601f168201915b5050505050905090565b600061064561063e610a6e565b8484610a76565b6001905092915050565b6000600254905090565b8060078190555050565b6000610670848484610c6d565b6107318461067c610a6e565b61072c856040518060600160405280602881526020016110d760289139600160008b73ffffffffffffffffffffffffffffffffffffffff1673ffffffffffffffffffffffffffffffffffffffff16815260200190815260200160002060006106e2610a6e565b73ffffffffffffffffffffffffffffffffffffffff1673ffffffffffffffffffffffffffffffffffffffff16815260200190815260200160002054610f239092919063ffffffff16565b610a76565b600190509392505050565b6000600560009054906101000a900460ff16905090565b60006107fc610760610a6e565b846107f78560016000610771610a6e565b73ffffffffffffffffffffffffffffffffffffffff1673ffffffffffffffffffffffffffffffffffffffff16815260200190815260200160002060008973ffffffffffffffffffffffffffffffffffffffff1673ffffffffffffffffffffffffffffffffffffffff16815260200190815260200160002054610fe390919063ffffffff16565b610a76565b6001905092915050565b60008060008373ffffffffffffffffffffffffffffffffffffffff1673ffffffffffffffffffffffffffffffffffffffff168152602001908152602001600020549050919050565b60075481565b606060048054600181600116156101000203166002900480601f0160208091040260200160405190810160405280929190818152602001828054600181600116156101000203166002900480156108ec5780601f106108c1576101008083540402835291602001916108ec565b820191906000526020600020905b8154815290600101906020018083116108cf57829003601f168201915b5050505050905090565b60065481565b60006109bf610909610a6e565b846109ba856040518060600160405280602581526020016111486025913960016000610933610a6e565b73ffffffffffffffffffffffffffffffffffffffff1673ffffffffffffffffffffffffffffffffffffffff16815260200190815260200160002060008a73ffffffffffffffffffffffffffffffffffffffff1673ffffffffffffffffffffffffffffffffffffffff16815260200190815260200160002054610f239092919063ffffffff16565b610a76565b6001905092915050565b60006109dd6109d6610a6e565b8484610c6d565b6001905092915050565b6000600160008473ffffffffffffffffffffffffffffffffffffffff1673ffffffffffffffffffffffffffffffffffffffff16815260200190815260200160002060008373ffffffffffffffffffffffffffffffffffffffff1673ffffffffffffffffffffffffffffffffffffffff16815260200190815260200160002054905092915050565b600033905090565b600073ffffffffffffffffffffffffffffffffffffffff168373ffffffffffffffffffffffffffffffffffffffff161415610afc576040517f08c379a00000000000000000000000000000000000000000000000000000000081526004018080602001828103825260248152602001806111246024913960400191505060405180910390fd5b600073ffffffffffffffffffffffffffffffffffffffff168273ffffffffffffffffffffffffffffffffffffffff161415610b82576040517f08c379a000000000000000000000000000000000000000000000000000000000815260040180806020018281038252602281526020018061108f6022913960400191505060405180910390fd5b80600160008573ffffffffffffffffffffffffffffffffffffffff1673ffffffffffffffffffffffffffffffffffffffff16815260200190815260200160002060008473ffffffffffffffffffffffffffffffffffffffff1673ffffffffffffffffffffffffffffffffffffffff168152602001908152602001600020819055508173ffffffffffffffffffffffffffffffffffffffff168373ffffffffffffffffffffffffffffffffffffffff167f8c5be1e5ebec7d5bd14f71427d1e84f3dd0314c0f7b2291e5b200ac8c7c3b925836040518082815260200191505060405180910390a3505050565b600073ffffffffffffffffffffffffffffffffffffffff168373ffffffffffffffffffffffffffffffffffffffff161415610cf3576040517f08c379a00000000000000000000000000000000000000000000000000000000081526004018080602001828103825260258152602001806110ff6025913960400191505060405180910390fd5b600073ffffffffffffffffffffffffffffffffffffffff168273ffffffffffffffffffffffffffffffffffffffff161415610d79576040517f08c379a000000000000000000000000000000000000000000000000000000000815260040180806020018281038252602381526020018061106c6023913960400191505060405180910390fd5b610de4816040518060600160405280602681526020016110b1602691396000808773ffffffffffffffffffffffffffffffffffffffff1673ffffffffffffffffffffffffffffffffffffffff16815260200190815260200160002054610f239092919063ffffffff16565b6000808573ffffffffffffffffffffffffffffffffffffffff1673ffffffffffffffffffffffffffffffffffffffff16815260200190815260200160002081905550610e77816000808573ffffffffffffffffffffffffffffffffffffffff1673ffffffffffffffffffffffffffffffffffffffff16815260200190815260200160002054610fe390919063ffffffff16565b6000808473ffffffffffffffffffffffffffffffffffffffff1673ffffffffffffffffffffffffffffffffffffffff168152602001908152602001600020819055508173ffffffffffffffffffffffffffffffffffffffff168373ffffffffffffffffffffffffffffffffffffffff167fddf252ad1be2c89b69c2b068fc378daa952ba7f163c4a11628f55a4df523b3ef836040518082815260200191505060405180910390a3505050565b6000838311158290610fd0576040517f08c379a00000000000000000000000000000000000000000000000000000000081526004018080602001828103825283818151815260200191508051906020019080838360005b83811015610f95578082015181840152602081019050610f7a565b50505050905090810190601f168015610fc25780820380516001836020036101000a031916815260200191505b509250505060405180910390fd5b5060008385039050809150509392505050565b600080828401905083811015611061576040517f08c379a000000000000000000000000000000000000000000000000000000000815260040180806020018281038252601b8152602001807f536166654d6174683a206164646974696f6e206f766572666c6f77000000000081525060200191505060405180910390fd5b809150509291505056fe45524332303a207472616e7366657220746f20746865207a65726f206164647265737345524332303a20617070726f766520746f20746865207a65726f206164647265737345524332303a207472616e7366657220616d6f756e7420657863656564732062616c616e636545524332303a207472616e7366657220616d6f756e74206578636565647320616c6c6f77616e636545524332303a207472616e736665722066726f6d20746865207a65726f206164647265737345524332303a20617070726f76652066726f6d20746865207a65726f206164647265737345524332303a2064656372656173656420616c6c6f77616e63652062656c6f77207a65726fa265627a7a723158200c728297a52a16cba7e03c3760caca624aca98c2bf1c800d6e2ea74bd8829d8c64736f6c634300050c003245524332303a20617070726f766520746f20746865207a65726f206164647265737345524332303a20617070726f76652066726f6d20746865207a65726f2061646472657373a265627a7a723158209cb54f8f5ef51250b163bb8ee354576b87638ea2107c183186f76c185f447d6a64736f6c634300050c0032",
  "source": "pragma solidity >=0.4.21 <0.6.0;\r\nimport \"./Project.sol\";\r\nimport \"openzeppelin-solidity/contracts/crowdsale/Crowdsale.sol\";\r\n\r\ncontract Market{\r\n    using SafeMath for uint256;\r\n    mapping(string => Proj) public projectsMarket;\r\n\r\n    function createProject(string memory _name,string memory _description,uint8 _decimals, uint _price)public{\r\n        Proj project = new Proj(_name, _description, _decimals, _price);\r\n        projectsMarket[_name] = project;\r\n    }\r\n    \r\n    function getProjectInfo(string memory _name)\r\n    public view returns(\r\n        string memory,\r\n        string memory,\r\n        string memory,\r\n        uint256,\r\n        string memory,\r\n        uint256){\r\n        return (\r\n            projectsMarket[_name].name(),\r\n            projectsMarket[_name].symbol(),\r\n            \"Project price: \",\r\n            getProjectPrice(_name),\r\n            \"Amount of shares: \",\r\n            getAmountOfShares(_name)\r\n            );\r\n    }\r\n    \r\n    function getAmountOfShares(string memory _name)public view returns(uint256){\r\n        return projectsMarket[_name].amountOfShares();\r\n    }\r\n    \r\n    function getProjectPrice(string memory _name)public view returns(uint256){\r\n        return projectsMarket[_name].price();\r\n    }\r\n    \r\n    function getBalance(string memory _name,address account)public view returns(uint256){\r\n        return projectsMarket[_name].balanceOf(account);\r\n    }\r\n    \r\n    function sellTokens(string memory _name,address buyer,uint256 amount)public{\r\n        require(amount>0,'Amount should be greater than 0');\r\n        \r\n        uint256 projectPrice = getProjectPrice(_name);\r\n        uint256 projectsShares = getAmountOfShares(_name);\r\n        uint256 newAmountOfShares = projectsShares + amount;\r\n        \r\n        projectsMarket[_name].transferFrom(buyer, tx.origin, projectPrice);\r\n        projectsMarket[_name].setAmountOfShares(newAmountOfShares);\r\n    }\r\n\r\n    function buyTokens(string memory _name, address seller, uint256 amount)public{\r\n        require(amount>0,'Amount should be greater than 0');\r\n        \r\n        uint256 projectPrice = getProjectPrice(_name);\r\n        uint256 projectsShares = getAmountOfShares(_name);\r\n        uint256 newAmountOfShares = projectsShares - amount;\r\n        \r\n        projectsMarket[_name].transfer(seller, projectPrice * amount);\r\n        projectsMarket[_name].setAmountOfShares(newAmountOfShares);\r\n    }\r\n}",
  "sourcePath": "C:/Users/Home/Desktop/Useful/Blockchain/solidity-proj/contracts/Market.sol",
  "compiler": {
    "name": "solc",
    "version": "0.5.12+commit.7709ece9.Emscripten.clang"
  },
  "schemaVersion": "3.0.18",
  "updatedAt": "2019-12-01T15:23:15.804Z",
  "devdoc": {
    "methods": {}
  },
  "userdoc": {
    "methods": {}
  }
}