{
  "contractName": "Market",
  "abi": [
    {
      "constant": true,
      "inputs": [
        {
          "internalType": "address",
          "name": "",
          "type": "address"
        }
      ],
      "name": "balances",
      "outputs": [
        {
          "internalType": "uint256",
          "name": "",
          "type": "uint256"
        }
      ],
      "payable": false,
      "stateMutability": "view",
      "type": "function"
    },
    {
      "constant": false,
      "inputs": [
        {
          "internalType": "string",
          "name": "projectName",
          "type": "string"
        },
        {
          "internalType": "string",
          "name": "projectDescription",
          "type": "string"
        },
        {
          "internalType": "uint256",
          "name": "amountOfTokens",
          "type": "uint256"
        }
      ],
      "name": "createProject",
      "outputs": [],
      "payable": false,
      "stateMutability": "nonpayable",
      "type": "function"
    },
    {
      "constant": true,
      "inputs": [
        {
          "internalType": "address",
          "name": "key",
          "type": "address"
        }
      ],
      "name": "getProjectInfo",
      "outputs": [
        {
          "internalType": "string",
          "name": "",
          "type": "string"
        },
        {
          "internalType": "string",
          "name": "",
          "type": "string"
        },
        {
          "internalType": "string",
          "name": "",
          "type": "string"
        },
        {
          "internalType": "string",
          "name": "",
          "type": "string"
        },
        {
          "internalType": "string",
          "name": "",
          "type": "string"
        },
        {
          "internalType": "uint256",
          "name": "",
          "type": "uint256"
        }
      ],
      "payable": false,
      "stateMutability": "view",
      "type": "function"
    },
    {
      "constant": false,
      "inputs": [
        {
          "internalType": "address",
          "name": "key",
          "type": "address"
        },
        {
          "internalType": "uint256",
          "name": "amount",
          "type": "uint256"
        }
      ],
      "name": "buyToken",
      "outputs": [],
      "payable": true,
      "stateMutability": "payable",
      "type": "function"
    },
    {
      "constant": false,
      "inputs": [
        {
          "internalType": "address",
          "name": "key",
          "type": "address"
        },
        {
          "internalType": "uint256",
          "name": "amount",
          "type": "uint256"
        }
      ],
      "name": "sellToken",
      "outputs": [],
      "payable": true,
      "stateMutability": "payable",
      "type": "function"
    },
    {
      "constant": true,
      "inputs": [
        {
          "internalType": "address",
          "name": "key",
          "type": "address"
        }
      ],
      "name": "getAmountOfTokens",
      "outputs": [
        {
          "internalType": "uint256",
          "name": "",
          "type": "uint256"
        }
      ],
      "payable": false,
      "stateMutability": "view",
      "type": "function"
    },
    {
      "constant": false,
      "inputs": [
        {
          "internalType": "address",
          "name": "key",
          "type": "address"
        },
        {
          "internalType": "uint256",
          "name": "amount",
          "type": "uint256"
        }
      ],
      "name": "setAmountOfTokens",
      "outputs": [],
      "payable": false,
      "stateMutability": "nonpayable",
      "type": "function"
    },
    {
      "constant": true,
      "inputs": [
        {
          "internalType": "address",
          "name": "key",
          "type": "address"
        }
      ],
      "name": "getTokenPrice",
      "outputs": [
        {
          "internalType": "uint256",
          "name": "",
          "type": "uint256"
        }
      ],
      "payable": false,
      "stateMutability": "view",
      "type": "function"
    }
  ],
  "bytecode": "0x608060405233600360006101000a81548173ffffffffffffffffffffffffffffffffffffffff021916908373ffffffffffffffffffffffffffffffffffffffff16021790555034801561005157600080fd5b5061235d806100616000396000f3fe608060405260043610620000865760003560e01c806368f8fc10116200005557806368f8fc10146200055a5780639bf768cd14620005ab578063d02641a01462000614578063f464e7db146200067d5762000086565b806323c55448146200008b57806327e235e314620001fe57806347ee45b9146200026757806367339dc514620004fb575b600080fd5b3480156200009857600080fd5b50620001fc60048036036060811015620000b157600080fd5b8101908080359060200190640100000000811115620000cf57600080fd5b820183602082011115620000e257600080fd5b803590602001918460018302840111640100000000831117156200010557600080fd5b91908080601f016020809104026020016040519081016040528093929190818152602001838380828437600081840152601f19601f820116905080830192505050505050509192919290803590602001906401000000008111156200016957600080fd5b8201836020820111156200017c57600080fd5b803590602001918460018302840111640100000000831117156200019f57600080fd5b91908080601f016020809104026020016040519081016040528093929190818152602001838380828437600081840152601f19601f82011690508083019250505050505050919291929080359060200190929190505050620006ce565b005b3480156200020b57600080fd5b5062000251600480360360208110156200022457600080fd5b81019080803573ffffffffffffffffffffffffffffffffffffffff16906020019092919050505062000867565b6040518082815260200191505060405180910390f35b3480156200027457600080fd5b50620002ba600480360360208110156200028d57600080fd5b81019080803573ffffffffffffffffffffffffffffffffffffffff1690602001909291905050506200087f565b60405180806020018060200180602001806020018060200187815260200186810386528c818151815260200191508051906020019080838360005b8381101562000312578082015181840152602081019050620002f5565b50505050905090810190601f168015620003405780820380516001836020036101000a031916815260200191505b5086810385528b818151815260200191508051906020019080838360005b838110156200037b5780820151818401526020810190506200035e565b50505050905090810190601f168015620003a95780820380516001836020036101000a031916815260200191505b5086810384528a818151815260200191508051906020019080838360005b83811015620003e4578082015181840152602081019050620003c7565b50505050905090810190601f168015620004125780820380516001836020036101000a031916815260200191505b50868103835289818151815260200191508051906020019080838360005b838110156200044d57808201518184015260208101905062000430565b50505050905090810190601f1680156200047b5780820380516001836020036101000a031916815260200191505b50868103825288818151815260200191508051906020019080838360005b83811015620004b657808201518184015260208101905062000499565b50505050905090810190601f168015620004e45780820380516001836020036101000a031916815260200191505b509b50505050505050505050505060405180910390f35b3480156200050857600080fd5b5062000558600480360360408110156200052157600080fd5b81019080803573ffffffffffffffffffffffffffffffffffffffff1690602001909291908035906020019092919050505062000d77565b005b620005a9600480360360408110156200057257600080fd5b81019080803573ffffffffffffffffffffffffffffffffffffffff1690602001909291908035906020019092919050505062000e47565b005b348015620005b857600080fd5b50620005fe60048036036020811015620005d157600080fd5b81019080803573ffffffffffffffffffffffffffffffffffffffff1690602001909291905050506200112a565b6040518082815260200191505060405180910390f35b3480156200062157600080fd5b5062000667600480360360208110156200063a57600080fd5b81019080803573ffffffffffffffffffffffffffffffffffffffff16906020019092919050505062001216565b6040518082815260200191505060405180910390f35b620006cc600480360360408110156200069557600080fd5b81019080803573ffffffffffffffffffffffffffffffffffffffff1690602001909291908035906020019092919050505062001302565b005b828282604051620006df906200154f565b808060200180602001848152602001838103835286818151815260200191508051906020019080838360005b83811015620007285780820151818401526020810190506200070b565b50505050905090810190601f168015620007565780820380516001836020036101000a031916815260200191505b50838103825285818151815260200191508051906020019080838360005b838110156200079157808201518184015260208101905062000774565b50505050905090810190601f168015620007bf5780820380516001836020036101000a031916815260200191505b5095505050505050604051809103906000f080158015620007e4573d6000803e3d6000fd5b50600160003373ffffffffffffffffffffffffffffffffffffffff1673ffffffffffffffffffffffffffffffffffffffff16815260200190815260200160002060006101000a81548173ffffffffffffffffffffffffffffffffffffffff021916908373ffffffffffffffffffffffffffffffffffffffff160217905550505050565b60026020528060005260406000206000915090505481565b60608060608060606000600160008873ffffffffffffffffffffffffffffffffffffffff1673ffffffffffffffffffffffffffffffffffffffff16815260200190815260200160002060009054906101000a900473ffffffffffffffffffffffffffffffffffffffff1673ffffffffffffffffffffffffffffffffffffffff166317d7de7c6040518163ffffffff1660e01b815260040160006040518083038186803b1580156200092f57600080fd5b505afa15801562000944573d6000803e3d6000fd5b505050506040513d6000823e3d601f19601f8201168201806040525060208110156200096f57600080fd5b81019080805160405193929190846401000000008211156200099057600080fd5b83820191506020820185811115620009a757600080fd5b8251866001820283011164010000000082111715620009c557600080fd5b8083526020830192505050908051906020019080838360005b83811015620009fb578082015181840152602081019050620009de565b50505050905090810190601f16801562000a295780820380516001836020036101000a031916815260200191505b50604052505050600160008973ffffffffffffffffffffffffffffffffffffffff1673ffffffffffffffffffffffffffffffffffffffff16815260200190815260200160002060009054906101000a900473ffffffffffffffffffffffffffffffffffffffff1673ffffffffffffffffffffffffffffffffffffffff16631a0925416040518163ffffffff1660e01b815260040160006040518083038186803b15801562000ad657600080fd5b505afa15801562000aeb573d6000803e3d6000fd5b505050506040513d6000823e3d601f19601f82011682018060405250602081101562000b1657600080fd5b810190808051604051939291908464010000000082111562000b3757600080fd5b8382019150602082018581111562000b4e57600080fd5b825186600182028301116401000000008211171562000b6c57600080fd5b8083526020830192505050908051906020019080838360005b8381101562000ba257808201518184015260208101905062000b85565b50505050905090810190601f16801562000bd05780820380516001836020036101000a031916815260200191505b50604052505050600160008a73ffffffffffffffffffffffffffffffffffffffff1673ffffffffffffffffffffffffffffffffffffffff16815260200190815260200160002060009054906101000a900473ffffffffffffffffffffffffffffffffffffffff1673ffffffffffffffffffffffffffffffffffffffff166313c521116040518163ffffffff1660e01b815260040160206040518083038186803b15801562000c7d57600080fd5b505afa15801562000c92573d6000803e3d6000fd5b505050506040513d602081101562000ca957600080fd5b81019080805190602001909291905050506040518060400160405280600e81526020017f50726f6a656374206e616d653a200000000000000000000000000000000000008152509291906040518060400160405280601581526020017f50726f6a656374206465736372697074696f6e3a20000000000000000000000081525091906040518060400160405280601281526020017f416d6f756e74206f6620746f6b656e733a2000000000000000000000000000008152509095509550955095509550955091939550919395565b600160008373ffffffffffffffffffffffffffffffffffffffff1673ffffffffffffffffffffffffffffffffffffffff16815260200190815260200160002060009054906101000a900473ffffffffffffffffffffffffffffffffffffffff1673ffffffffffffffffffffffffffffffffffffffff1663cac7a85d826040518263ffffffff1660e01b815260040180828152602001915050600060405180830381600087803b15801562000e2a57600080fd5b505af115801562000e3f573d6000803e3d6000fd5b505050505050565b6000811162000ebe576040517f08c379a00000000000000000000000000000000000000000000000000000000081526004018080602001828103825260168152602001807f596f752063616e277420627579203020746f6b656e730000000000000000000081525060200191505060405180910390fd5b6000600160008473ffffffffffffffffffffffffffffffffffffffff1673ffffffffffffffffffffffffffffffffffffffff16815260200190815260200160002060009054906101000a900473ffffffffffffffffffffffffffffffffffffffff1673ffffffffffffffffffffffffffffffffffffffff16634b94f50e6040518163ffffffff1660e01b815260040160206040518083038186803b15801562000f6657600080fd5b505afa15801562000f7b573d6000803e3d6000fd5b505050506040513d602081101562000f9257600080fd5b81019080805190602001909291905050509050600062000fb2846200112a565b9050828202600360009054906101000a900473ffffffffffffffffffffffffffffffffffffffff1673ffffffffffffffffffffffffffffffffffffffff163110156200104a576040517f08c379a0000000000000000000000000000000000000000000000000000000008152600401808060200182810382526031815260200180620022f86031913960400191505060405180910390fd5b8260026000600360009054906101000a900473ffffffffffffffffffffffffffffffffffffffff1673ffffffffffffffffffffffffffffffffffffffff1673ffffffffffffffffffffffffffffffffffffffff16815260200190815260200160002060008282540192505081905550600360009054906101000a900473ffffffffffffffffffffffffffffffffffffffff1673ffffffffffffffffffffffffffffffffffffffff166108fc8484029081150290604051600060405180830381858888f1935050505050828103905062001124848262000d77565b50505050565b6000600160008373ffffffffffffffffffffffffffffffffffffffff1673ffffffffffffffffffffffffffffffffffffffff16815260200190815260200160002060009054906101000a900473ffffffffffffffffffffffffffffffffffffffff1673ffffffffffffffffffffffffffffffffffffffff166313c521116040518163ffffffff1660e01b815260040160206040518083038186803b158015620011d257600080fd5b505afa158015620011e7573d6000803e3d6000fd5b505050506040513d6020811015620011fe57600080fd5b81019080805190602001909291905050509050919050565b6000600160008373ffffffffffffffffffffffffffffffffffffffff1673ffffffffffffffffffffffffffffffffffffffff16815260200190815260200160002060009054906101000a900473ffffffffffffffffffffffffffffffffffffffff1673ffffffffffffffffffffffffffffffffffffffff16634b94f50e6040518163ffffffff1660e01b815260040160206040518083038186803b158015620012be57600080fd5b505afa158015620012d3573d6000803e3d6000fd5b505050506040513d6020811015620012ea57600080fd5b81019080805190602001909291905050509050919050565b6000811162001379576040517f08c379a00000000000000000000000000000000000000000000000000000000081526004018080602001828103825260178152602001807f596f752063616e27742073656c6c203020746f6b656e7300000000000000000081525060200191505060405180910390fd5b6000600160008473ffffffffffffffffffffffffffffffffffffffff1673ffffffffffffffffffffffffffffffffffffffff16815260200190815260200160002060009054906101000a900473ffffffffffffffffffffffffffffffffffffffff1673ffffffffffffffffffffffffffffffffffffffff16634b94f50e6040518163ffffffff1660e01b815260040160206040518083038186803b1580156200142157600080fd5b505afa15801562001436573d6000803e3d6000fd5b505050506040513d60208110156200144d57600080fd5b8101908080519060200190929190505050905060006200146d846200112a565b90508260026000600360009054906101000a900473ffffffffffffffffffffffffffffffffffffffff1673ffffffffffffffffffffffffffffffffffffffff1673ffffffffffffffffffffffffffffffffffffffff16815260200190815260200160002060008282540392505081905550600360009054906101000a900473ffffffffffffffffffffffffffffffffffffffff1673ffffffffffffffffffffffffffffffffffffffff166108fc8484029081150290604051600060405180830381858888f1935050505050828101905062001549848262000d77565b50505050565b610d9a806200155e8339019056fe608060405233600260006101000a81548173ffffffffffffffffffffffffffffffffffffffff021916908373ffffffffffffffffffffffffffffffffffffffff1602179055506113886004553480156200005857600080fd5b5060405162000d9a38038062000d9a833981810160405260608110156200007e57600080fd5b81019080805160405193929190846401000000008211156200009f57600080fd5b83820191506020820185811115620000b657600080fd5b8251866001820283011164010000000082111715620000d457600080fd5b8083526020830192505050908051906020019080838360005b838110156200010a578082015181840152602081019050620000ed565b50505050905090810190601f168015620001385780820380516001836020036101000a031916815260200191505b50604052602001805160405193929190846401000000008211156200015c57600080fd5b838201915060208201858111156200017357600080fd5b82518660018202830111640100000000821117156200019157600080fd5b8083526020830192505050908051906020019080838360005b83811015620001c7578082015181840152602081019050620001aa565b50505050905090810190601f168015620001f55780820380516001836020036101000a031916815260200191505b5060405260200180519060200190929190505050826000908051906020019062000221929190620004d8565b5081600190805190602001906200023a929190620004d8565b50806003819055506200025783836003546200026060201b60201c565b505050620005a8565b6200026a6200055f565b60056000600260009054906101000a900473ffffffffffffffffffffffffffffffffffffffff1673ffffffffffffffffffffffffffffffffffffffff1673ffffffffffffffffffffffffffffffffffffffff168152602001908152602001600020604051806060016040529081600082018054600181600116156101000203166002900480601f016020809104026020016040519081016040528092919081815260200182805460018160011615610100020316600290048015620003735780601f10620003475761010080835404028352916020019162000373565b820191906000526020600020905b8154815290600101906020018083116200035557829003601f168201915b50505050508152602001600182018054600181600116156101000203166002900480601f016020809104026020016040519081016040528092919081815260200182805460018160011615610100020316600290048015620004195780601f10620003ed5761010080835404028352916020019162000419565b820191906000526020600020905b815481529060010190602001808311620003fb57829003601f168201915b505050505081526020016002820154815250509050838160000181905250828160200181905250818160400181815250506006600260009054906101000a900473ffffffffffffffffffffffffffffffffffffffff1690806001815401808255809150509060018203906000526020600020016000909192909190916101000a81548173ffffffffffffffffffffffffffffffffffffffff021916908373ffffffffffffffffffffffffffffffffffffffff1602179055505050505050565b828054600181600116156101000203166002900490600052602060002090601f016020900481019282601f106200051b57805160ff19168380011785556200054c565b828001600101855582156200054c579182015b828111156200054b5782518255916020019190600101906200052e565b5b5090506200055b919062000580565b5090565b60405180606001604052806060815260200160608152602001600081525090565b620005a591905b80821115620005a157600081600090555060010162000587565b5090565b90565b6107e280620005b86000396000f3fe608060405234801561001057600080fd5b50600436106100885760003560e01c80631d3e78af1161005b5780631d3e78af146101cf5780634b94f50e1461023d57806367c897fe1461025b578063cac7a85d1461035157610088565b806312065fe01461008d57806313c52111146100ab57806317d7de7c146100c95780631a0925411461014c575b600080fd5b61009561037f565b6040518082815260200191505060405180910390f35b6100b361039e565b6040518082815260200191505060405180910390f35b6100d16103a4565b6040518080602001828103825283818151815260200191508051906020019080838360005b838110156101115780820151818401526020810190506100f6565b50505050905090810190601f16801561013e5780820380516001836020036101000a031916815260200191505b509250505060405180910390f35b610154610446565b6040518080602001828103825283818151815260200191508051906020019080838360005b83811015610194578082015181840152602081019050610179565b50505050905090810190601f1680156101c15780820380516001836020036101000a031916815260200191505b509250505060405180910390f35b6101fb600480360360208110156101e557600080fd5b81019080803590602001909291905050506104e8565b604051808273ffffffffffffffffffffffffffffffffffffffff1673ffffffffffffffffffffffffffffffffffffffff16815260200191505060405180910390f35b610245610524565b6040518082815260200191505060405180910390f35b61026361052e565b604051808060200180602001848152602001838103835286818151815260200191508051906020019080838360005b838110156102ad578082015181840152602081019050610292565b50505050905090810190601f1680156102da5780820380516001836020036101000a031916815260200191505b50838103825285818151815260200191508051906020019080838360005b838110156103135780820151818401526020810190506102f8565b50505050905090810190601f1680156103405780820380516001836020036101000a031916815260200191505b509550505050505060405180910390f35b61037d6004803603602081101561036757600080fd5b81019080803590602001909291905050506107a3565b005b60003073ffffffffffffffffffffffffffffffffffffffff1631905090565b60035481565b606060008054600181600116156101000203166002900480601f01602080910402602001604051908101604052809291908181526020018280546001816001161561010002031660029004801561043c5780601f106104115761010080835404028352916020019161043c565b820191906000526020600020905b81548152906001019060200180831161041f57829003601f168201915b5050505050905090565b606060018054600181600116156101000203166002900480601f0160208091040260200160405190810160405280929190818152602001828054600181600116156101000203166002900480156104de5780601f106104b3576101008083540402835291602001916104de565b820191906000526020600020905b8154815290600101906020018083116104c157829003601f168201915b5050505050905090565b600681815481106104f557fe5b906000526020600020016000915054906101000a900473ffffffffffffffffffffffffffffffffffffffff1681565b6000600454905090565b606080600060056000600260009054906101000a900473ffffffffffffffffffffffffffffffffffffffff1673ffffffffffffffffffffffffffffffffffffffff1673ffffffffffffffffffffffffffffffffffffffff16815260200190815260200160002060000160056000600260009054906101000a900473ffffffffffffffffffffffffffffffffffffffff1673ffffffffffffffffffffffffffffffffffffffff1673ffffffffffffffffffffffffffffffffffffffff16815260200190815260200160002060010160056000600260009054906101000a900473ffffffffffffffffffffffffffffffffffffffff1673ffffffffffffffffffffffffffffffffffffffff1673ffffffffffffffffffffffffffffffffffffffff16815260200190815260200160002060020154828054600181600116156101000203166002900480601f0160208091040260200160405190810160405280929190818152602001828054600181600116156101000203166002900480156106f55780601f106106ca576101008083540402835291602001916106f5565b820191906000526020600020905b8154815290600101906020018083116106d857829003601f168201915b50505050509250818054600181600116156101000203166002900480601f0160208091040260200160405190810160405280929190818152602001828054600181600116156101000203166002900480156107915780601f1061076657610100808354040283529160200191610791565b820191906000526020600020905b81548152906001019060200180831161077457829003601f168201915b50505050509150925092509250909192565b806003819055505056fea265627a7a72315820cb738c042adbe2e09173552e0a63503036b26b7a6ed7de8c70977c0fe0c731e164736f6c634300050c003242616c616e63652068617320746f2062652067726561746572206f7220657175616c20746f20746f6b656e207072696365a265627a7a72315820282a75397e7cbd79742784b843d94d989cd61fe67257862052052caa9bcb66cb64736f6c634300050c0032",
  "source": "pragma solidity >=0.4.21 <0.6.0;\r\nimport \"./Project.sol\";\r\n\r\n\r\ncontract Market{\r\n    Project[] projectMarket;\r\n    mapping (address => Project) projects;\r\n    mapping(address => uint256) public balances;\r\n    address payable wallet = msg.sender;\r\n\r\n    function createProject(\r\n        string memory projectName,\r\n        string memory projectDescription,\r\n        uint256 amountOfTokens\r\n        ) public{\r\n            projects[msg.sender] = new Project(projectName,projectDescription,amountOfTokens);\r\n    }\r\n\r\n    function getProjectInfo(address key) public view returns(string memory, string memory,string memory,string memory,string memory, uint256){\r\n      return (\r\n          \"Project name: \", projects[key].getName(),\r\n          \"Project description: \", projects[key].getDescription(),\r\n          \"Amount of tokens: \",projects[key].amountOfTokens()\r\n          );\r\n    }\r\n\r\n    function buyToken(address key,uint256 amount) public payable{\r\n        require(amount > 0,\"You can't buy 0 tokens\");\r\n        uint256 tokenPrice = projects[key].getTokenPrice();\r\n        uint256 amountOfTokens = getAmountOfTokens(key);\r\n        require(wallet.balance >= tokenPrice * amount,\"Balance has to be greater or equal to token price\");\r\n        balances[wallet] += amount;\r\n        wallet.send(tokenPrice * amount);\r\n        amountOfTokens -= amount;\r\n        setAmountOfTokens(key,amountOfTokens);\r\n    }\r\n\r\n    function sellToken(address key, uint256 amount) external payable{\r\n        require(amount > 0,\"You can't sell 0 tokens\");\r\n        uint256 tokenPrice = projects[key].getTokenPrice();\r\n        uint256 amountOfTokens = getAmountOfTokens(key);\r\n        balances[wallet] -= amount;\r\n        wallet.send(tokenPrice * amount);\r\n        amountOfTokens += amount;\r\n        setAmountOfTokens(key,amountOfTokens);\r\n    }\r\n\r\n    function getAmountOfTokens(address key) public view returns(uint256){\r\n       return projects[key].amountOfTokens();\r\n    }\r\n\r\n   function setAmountOfTokens(address key, uint256 amount) public {\r\n       projects[key].setAmountOfTokens(amount);\r\n   }\r\n\r\n   function getTokenPrice(address key) public view returns(uint256){\r\n       return projects[key].getTokenPrice();\r\n   }\r\n}\r\n",
  "sourcePath": "C:/Users/Home/Desktop/Useful/Blockchain/solidity-proj/contracts/Market.sol",
  "compiler": {
    "name": "solc",
    "version": "0.5.12+commit.7709ece9.Emscripten.clang"
  },
  "schemaVersion": "3.0.18",
  "updatedAt": "2019-11-22T10:40:50.278Z",
  "networkType": "ethereum",
  "devdoc": {
    "methods": {}
  },
  "userdoc": {
    "methods": {}
  }
}