{
  "contractName": "Market",
  "abi": [
    {
      "constant": true,
      "inputs": [
        {
          "internalType": "string",
          "name": "",
          "type": "string"
        }
      ],
      "name": "projectsMarket",
      "outputs": [
        {
          "internalType": "contract Proj",
          "name": "",
          "type": "address"
        }
      ],
      "payable": false,
      "stateMutability": "view",
      "type": "function"
    },
    {
      "constant": false,
      "inputs": [
        {
          "internalType": "string",
          "name": "_name",
          "type": "string"
        },
        {
          "internalType": "string",
          "name": "_description",
          "type": "string"
        },
        {
          "internalType": "uint8",
          "name": "_decimals",
          "type": "uint8"
        },
        {
          "internalType": "uint256",
          "name": "_price",
          "type": "uint256"
        }
      ],
      "name": "createProject",
      "outputs": [],
      "payable": false,
      "stateMutability": "nonpayable",
      "type": "function"
    },
    {
      "constant": true,
      "inputs": [
        {
          "internalType": "string",
          "name": "_name",
          "type": "string"
        }
      ],
      "name": "getProjectInfo",
      "outputs": [
        {
          "internalType": "string",
          "name": "",
          "type": "string"
        },
        {
          "internalType": "string",
          "name": "",
          "type": "string"
        },
        {
          "internalType": "string",
          "name": "",
          "type": "string"
        },
        {
          "internalType": "uint256",
          "name": "",
          "type": "uint256"
        },
        {
          "internalType": "string",
          "name": "",
          "type": "string"
        },
        {
          "internalType": "uint256",
          "name": "",
          "type": "uint256"
        }
      ],
      "payable": false,
      "stateMutability": "view",
      "type": "function"
    },
    {
      "constant": true,
      "inputs": [
        {
          "internalType": "string",
          "name": "_name",
          "type": "string"
        }
      ],
      "name": "getAmountOfShares",
      "outputs": [
        {
          "internalType": "uint256",
          "name": "",
          "type": "uint256"
        }
      ],
      "payable": false,
      "stateMutability": "view",
      "type": "function"
    },
    {
      "constant": true,
      "inputs": [
        {
          "internalType": "string",
          "name": "_name",
          "type": "string"
        }
      ],
      "name": "getProjectPrice",
      "outputs": [
        {
          "internalType": "uint256",
          "name": "",
          "type": "uint256"
        }
      ],
      "payable": false,
      "stateMutability": "view",
      "type": "function"
    },
    {
      "constant": true,
      "inputs": [
        {
          "internalType": "string",
          "name": "_name",
          "type": "string"
        }
      ],
      "name": "getBalance",
      "outputs": [
        {
          "internalType": "uint256",
          "name": "",
          "type": "uint256"
        }
      ],
      "payable": false,
      "stateMutability": "view",
      "type": "function"
    },
    {
      "constant": false,
      "inputs": [
        {
          "internalType": "string",
          "name": "_name",
          "type": "string"
        },
        {
          "internalType": "address",
          "name": "buyer",
          "type": "address"
        },
        {
          "internalType": "uint256",
          "name": "amount",
          "type": "uint256"
        }
      ],
      "name": "sellTokens",
      "outputs": [],
      "payable": false,
      "stateMutability": "nonpayable",
      "type": "function"
    },
    {
      "constant": false,
      "inputs": [
        {
          "internalType": "string",
          "name": "_name",
          "type": "string"
        },
        {
          "internalType": "address",
          "name": "seller",
          "type": "address"
        },
        {
          "internalType": "uint256",
          "name": "amount",
          "type": "uint256"
        }
      ],
      "name": "buyTokens",
      "outputs": [],
      "payable": false,
      "stateMutability": "nonpayable",
      "type": "function"
    }
  ],
  "bytecode": "0x608060405234801561001057600080fd5b5061325e806100206000396000f3fe60806040523480156200001157600080fd5b5060043610620000945760003560e01c8063441294fb1162000063578063441294fb14620004195780636a70a71f146200051a578063d38c4fbe14620005ef578063f339118d14620007615762000094565b80632a694800146200009957806338c660c214620001845780633a51d246146200025957806341f8089c146200032e575b600080fd5b6200018260048036036060811015620000b157600080fd5b8101908080359060200190640100000000811115620000cf57600080fd5b820183602082011115620000e257600080fd5b803590602001918460018302840111640100000000831117156200010557600080fd5b91908080601f016020809104026020016040519081016040528093929190818152602001838380828437600081840152601f19601f820116905080830192505050505050509192919290803573ffffffffffffffffffffffffffffffffffffffff16906020019092919080359060200190929190505050620009f9565b005b62000243600480360360208110156200019c57600080fd5b8101908080359060200190640100000000811115620001ba57600080fd5b820183602082011115620001cd57600080fd5b80359060200191846001830284011164010000000083111715620001f057600080fd5b91908080601f016020809104026020016040519081016040528093929190818152602001838380828437600081840152601f19601f82011690508083019250505050505050919291929050505062000bfa565b6040518082815260200191505060405180910390f35b62000318600480360360208110156200027157600080fd5b81019080803590602001906401000000008111156200028f57600080fd5b820183602082011115620002a257600080fd5b80359060200191846001830284011164010000000083111715620002c557600080fd5b91908080601f016020809104026020016040519081016040528093929190818152602001838380828437600081840152601f19601f82011690508083019250505050505050919291929050505062000d14565b6040518082815260200191505060405180910390f35b62000417600480360360608110156200034657600080fd5b81019080803590602001906401000000008111156200036457600080fd5b8201836020820111156200037757600080fd5b803590602001918460018302840111640100000000831117156200039a57600080fd5b91908080601f016020809104026020016040519081016040528093929190818152602001838380828437600081840152601f19601f820116905080830192505050505050509192919290803573ffffffffffffffffffffffffffffffffffffffff1690602001909291908035906020019092919050505062000e2b565b005b620004d8600480360360208110156200043157600080fd5b81019080803590602001906401000000008111156200044f57600080fd5b8201836020820111156200046257600080fd5b803590602001918460018302840111640100000000831117156200048557600080fd5b91908080601f016020809104026020016040519081016040528093929190818152602001838380828437600081840152601f19601f82011690508083019250505050505050919291929050505062001004565b604051808273ffffffffffffffffffffffffffffffffffffffff1673ffffffffffffffffffffffffffffffffffffffff16815260200191505060405180910390f35b620005d9600480360360208110156200053257600080fd5b81019080803590602001906401000000008111156200055057600080fd5b8201836020820111156200056357600080fd5b803590602001918460018302840111640100000000831117156200058657600080fd5b91908080601f016020809104026020016040519081016040528093929190818152602001838380828437600081840152601f19601f8201169050808301925050505050505091929192905050506200104d565b6040518082815260200191505060405180910390f35b6200075f600480360360808110156200060757600080fd5b81019080803590602001906401000000008111156200062557600080fd5b8201836020820111156200063857600080fd5b803590602001918460018302840111640100000000831117156200065b57600080fd5b91908080601f016020809104026020016040519081016040528093929190818152602001838380828437600081840152601f19601f82011690508083019250505050505050919291929080359060200190640100000000811115620006bf57600080fd5b820183602082011115620006d257600080fd5b80359060200191846001830284011164010000000083111715620006f557600080fd5b91908080601f016020809104026020016040519081016040528093929190818152602001838380828437600081840152601f19601f820116905080830192505050505050509192919290803560ff1690602001909291908035906020019092919050505062001164565b005b62000820600480360360208110156200077957600080fd5b81019080803590602001906401000000008111156200079757600080fd5b820183602082011115620007aa57600080fd5b80359060200191846001830284011164010000000083111715620007cd57600080fd5b91908080601f016020809104026020016040519081016040528093929190818152602001838380828437600081840152601f19601f82011690508083019250505050505050919291929050505062001416565b604051808060200180602001806020018781526020018060200186815260200185810385528b818151815260200191508051906020019080838360005b838110156200087a5780820151818401526020810190506200085d565b50505050905090810190601f168015620008a85780820380516001836020036101000a031916815260200191505b5085810384528a818151815260200191508051906020019080838360005b83811015620008e3578082015181840152602081019050620008c6565b50505050905090810190601f168015620009115780820380516001836020036101000a031916815260200191505b50858103835289818151815260200191508051906020019080838360005b838110156200094c5780820151818401526020810190506200092f565b50505050905090810190601f1680156200097a5780820380516001836020036101000a031916815260200191505b50858103825287818151815260200191508051906020019080838360005b83811015620009b557808201518184015260208101905062000998565b50505050905090810190601f168015620009e35780820380516001836020036101000a031916815260200191505b509a505050505050505050505060405180910390f35b6000811162000a70576040517f08c379a000000000000000000000000000000000000000000000000000000000815260040180806020018281038252601f8152602001807f416d6f756e742073686f756c642062652067726561746572207468616e20300081525060200191505060405180910390fd5b6000836040518082805190602001908083835b6020831062000aa8578051825260208201915060208101905060208303925062000a83565b6001836020036101000a038019825116818451168082178552505050505050905001915050908152602001604051809103902060009054906101000a900473ffffffffffffffffffffffffffffffffffffffff1673ffffffffffffffffffffffffffffffffffffffff166323b872dd8332846040518463ffffffff1660e01b8152600401808473ffffffffffffffffffffffffffffffffffffffff1673ffffffffffffffffffffffffffffffffffffffff1681526020018373ffffffffffffffffffffffffffffffffffffffff1673ffffffffffffffffffffffffffffffffffffffff1681526020018281526020019350505050602060405180830381600087803b15801562000bb757600080fd5b505af115801562000bcc573d6000803e3d6000fd5b505050506040513d602081101562000be357600080fd5b810190808051906020019092919050505050505050565b600080826040518082805190602001908083835b6020831062000c33578051825260208201915060208101905060208303925062000c0e565b6001836020036101000a038019825116818451168082178552505050505050905001915050908152602001604051809103902060009054906101000a900473ffffffffffffffffffffffffffffffffffffffff1673ffffffffffffffffffffffffffffffffffffffff1663313ce5676040518163ffffffff1660e01b815260040160206040518083038186803b15801562000ccd57600080fd5b505afa15801562000ce2573d6000803e3d6000fd5b505050506040513d602081101562000cf957600080fd5b810190808051906020019092919050505060ff169050919050565b600080826040518082805190602001908083835b6020831062000d4d578051825260208201915060208101905060208303925062000d28565b6001836020036101000a038019825116818451168082178552505050505050905001915050908152602001604051809103902060009054906101000a900473ffffffffffffffffffffffffffffffffffffffff1673ffffffffffffffffffffffffffffffffffffffff166318160ddd6040518163ffffffff1660e01b815260040160206040518083038186803b15801562000de757600080fd5b505afa15801562000dfc573d6000803e3d6000fd5b505050506040513d602081101562000e1357600080fd5b81019080805190602001909291905050509050919050565b6000811162000ea2576040517f08c379a000000000000000000000000000000000000000000000000000000000815260040180806020018281038252601f8152602001807f416d6f756e742073686f756c642062652067726561746572207468616e20300081525060200191505060405180910390fd5b6000836040518082805190602001908083835b6020831062000eda578051825260208201915060208101905060208303925062000eb5565b6001836020036101000a038019825116818451168082178552505050505050905001915050908152602001604051809103902060009054906101000a900473ffffffffffffffffffffffffffffffffffffffff1673ffffffffffffffffffffffffffffffffffffffff1663a9059cbb838362000f56876200104d565b026040518363ffffffff1660e01b8152600401808373ffffffffffffffffffffffffffffffffffffffff1673ffffffffffffffffffffffffffffffffffffffff16815260200182815260200192505050602060405180830381600087803b15801562000fc157600080fd5b505af115801562000fd6573d6000803e3d6000fd5b505050506040513d602081101562000fed57600080fd5b810190808051906020019092919050505050505050565b6000818051602081018201805184825260208301602085012081835280955050505050506000915054906101000a900473ffffffffffffffffffffffffffffffffffffffff1681565b600080826040518082805190602001908083835b6020831062001086578051825260208201915060208101905060208303925062001061565b6001836020036101000a038019825116818451168082178552505050505050905001915050908152602001604051809103902060009054906101000a900473ffffffffffffffffffffffffffffffffffffffff1673ffffffffffffffffffffffffffffffffffffffff1663a035b1fe6040518163ffffffff1660e01b815260040160206040518083038186803b1580156200112057600080fd5b505afa15801562001135573d6000803e3d6000fd5b505050506040513d60208110156200114c57600080fd5b81019080805190602001909291905050509050919050565b60008260ff1611620011c2576040517f08c379a0000000000000000000000000000000000000000000000000000000008152600401808060200182810382526024815260200180620032066024913960400191505060405180910390fd5b60008260ff16116200123c576040517f08c379a00000000000000000000000000000000000000000000000000000000081526004018080602001828103825260118152602001807f50726963652063616e6e6f74206265203000000000000000000000000000000081525060200191505060405180910390fd5b600084848484604051620012509062001860565b8080602001806020018560ff1660ff168152602001848152602001838103835287818151815260200191508051906020019080838360005b83811015620012a557808201518184015260208101905062001288565b50505050905090810190601f168015620012d35780820380516001836020036101000a031916815260200191505b50838103825286818151815260200191508051906020019080838360005b838110156200130e578082015181840152602081019050620012f1565b50505050905090810190601f1680156200133c5780820380516001836020036101000a031916815260200191505b509650505050505050604051809103906000f08015801562001362573d6000803e3d6000fd5b509050806000866040518082805190602001908083835b602083106200139e578051825260208201915060208101905060208303925062001379565b6001836020036101000a038019825116818451168082178552505050505050905001915050908152602001604051809103902060006101000a81548173ffffffffffffffffffffffffffffffffffffffff021916908373ffffffffffffffffffffffffffffffffffffffff1602179055505050505050565b606080606060006060600080876040518082805190602001908083835b6020831062001458578051825260208201915060208101905060208303925062001433565b6001836020036101000a038019825116818451168082178552505050505050905001915050908152602001604051809103902060009054906101000a900473ffffffffffffffffffffffffffffffffffffffff1673ffffffffffffffffffffffffffffffffffffffff166306fdde036040518163ffffffff1660e01b815260040160006040518083038186803b158015620014f257600080fd5b505afa15801562001507573d6000803e3d6000fd5b505050506040513d6000823e3d601f19601f8201168201806040525060208110156200153257600080fd5b81019080805160405193929190846401000000008211156200155357600080fd5b838201915060208201858111156200156a57600080fd5b82518660018202830111640100000000821117156200158857600080fd5b8083526020830192505050908051906020019080838360005b83811015620015be578082015181840152602081019050620015a1565b50505050905090810190601f168015620015ec5780820380516001836020036101000a031916815260200191505b506040525050506000886040518082805190602001908083835b602083106200162b578051825260208201915060208101905060208303925062001606565b6001836020036101000a038019825116818451168082178552505050505050905001915050908152602001604051809103902060009054906101000a900473ffffffffffffffffffffffffffffffffffffffff1673ffffffffffffffffffffffffffffffffffffffff166395d89b416040518163ffffffff1660e01b815260040160006040518083038186803b158015620016c557600080fd5b505afa158015620016da573d6000803e3d6000fd5b505050506040513d6000823e3d601f19601f8201168201806040525060208110156200170557600080fd5b81019080805160405193929190846401000000008211156200172657600080fd5b838201915060208201858111156200173d57600080fd5b82518660018202830111640100000000821117156200175b57600080fd5b8083526020830192505050908051906020019080838360005b838110156200179157808201518184015260208101905062001774565b50505050905090810190601f168015620017bf5780820380516001836020036101000a031916815260200191505b50604052505050620017d1896200104d565b620017dc8a62000bfa565b6040518060400160405280600f81526020017f50726f6a6563742070726963653a20000000000000000000000000000000000081525091906040518060400160405280601281526020017f416d6f756e74206f66207368617265733a2000000000000000000000000000008152509095509550955095509550955091939550919395565b611997806200186f8339019056fe60806040523480156200001157600080fd5b506040516200199738038062001997833981810160405260808110156200003757600080fd5b81019080805160405193929190846401000000008211156200005857600080fd5b838201915060208201858111156200006f57600080fd5b82518660018202830111640100000000821117156200008d57600080fd5b8083526020830192505050908051906020019080838360005b83811015620000c3578082015181840152602081019050620000a6565b50505050905090810190601f168015620000f15780820380516001836020036101000a031916815260200191505b50604052602001805160405193929190846401000000008211156200011557600080fd5b838201915060208201858111156200012c57600080fd5b82518660018202830111640100000000821117156200014a57600080fd5b8083526020830192505050908051906020019080838360005b838110156200018057808201518184015260208101905062000163565b50505050905090810190601f168015620001ae5780820380516001836020036101000a031916815260200191505b5060405260200180519060200190929190805190602001909291905050508383838260039080519060200190620001e792919062000716565b5081600490805190602001906200020092919062000716565b5080600560006101000a81548160ff021916908360ff160217905550505050806006819055506200025b6200023a6200027b60201b60201c565b6200024a6200028360201b60201c565b60ff1683026200029a60201b60201c565b62000270328360ff166200046460201b60201c565b5050505050620007c5565b600033905090565b6000600560009054906101000a900460ff16905090565b600073ffffffffffffffffffffffffffffffffffffffff168273ffffffffffffffffffffffffffffffffffffffff1614156200033e576040517f08c379a000000000000000000000000000000000000000000000000000000000815260040180806020018281038252601f8152602001807f45524332303a206d696e7420746f20746865207a65726f20616464726573730081525060200191505060405180910390fd5b6200035a816002546200049260201b62000fbe1790919060201c565b600281905550620003b8816000808573ffffffffffffffffffffffffffffffffffffffff1673ffffffffffffffffffffffffffffffffffffffff168152602001908152602001600020546200049260201b62000fbe1790919060201c565b6000808473ffffffffffffffffffffffffffffffffffffffff1673ffffffffffffffffffffffffffffffffffffffff168152602001908152602001600020819055508173ffffffffffffffffffffffffffffffffffffffff16600073ffffffffffffffffffffffffffffffffffffffff167fddf252ad1be2c89b69c2b068fc378daa952ba7f163c4a11628f55a4df523b3ef836040518082815260200191505060405180910390a35050565b6000620004886200047a6200027b60201b60201c565b84846200051b60201b60201c565b6001905092915050565b60008082840190508381101562000511576040517f08c379a000000000000000000000000000000000000000000000000000000000815260040180806020018281038252601b8152602001807f536166654d6174683a206164646974696f6e206f766572666c6f77000000000081525060200191505060405180910390fd5b8091505092915050565b600073ffffffffffffffffffffffffffffffffffffffff168373ffffffffffffffffffffffffffffffffffffffff161415620005a3576040517f08c379a0000000000000000000000000000000000000000000000000000000008152600401808060200182810382526024815260200180620019736024913960400191505060405180910390fd5b600073ffffffffffffffffffffffffffffffffffffffff168273ffffffffffffffffffffffffffffffffffffffff1614156200062b576040517f08c379a0000000000000000000000000000000000000000000000000000000008152600401808060200182810382526022815260200180620019516022913960400191505060405180910390fd5b80600160008573ffffffffffffffffffffffffffffffffffffffff1673ffffffffffffffffffffffffffffffffffffffff16815260200190815260200160002060008473ffffffffffffffffffffffffffffffffffffffff1673ffffffffffffffffffffffffffffffffffffffff168152602001908152602001600020819055508173ffffffffffffffffffffffffffffffffffffffff168373ffffffffffffffffffffffffffffffffffffffff167f8c5be1e5ebec7d5bd14f71427d1e84f3dd0314c0f7b2291e5b200ac8c7c3b925836040518082815260200191505060405180910390a3505050565b828054600181600116156101000203166002900490600052602060002090601f016020900481019282601f106200075957805160ff19168380011785556200078a565b828001600101855582156200078a579182015b82811115620007895782518255916020019190600101906200076c565b5b5090506200079991906200079d565b5090565b620007c291905b80821115620007be576000816000905550600101620007a4565b5090565b90565b61117c80620007d56000396000f3fe608060405234801561001057600080fd5b50600436106100cf5760003560e01c8063395093511161008c578063a035b1fe11610066578063a035b1fe14610410578063a457c2d71461042e578063a9059cbb14610494578063dd62ed3e146104fa576100cf565b806339509351146102cf57806370a082311461033557806395d89b411461038d576100cf565b806306fdde03146100d4578063095ea7b31461015757806318160ddd146101bd57806323b872dd146101db578063313ce5671461026157806338cc483114610285575b600080fd5b6100dc610572565b6040518080602001828103825283818151815260200191508051906020019080838360005b8381101561011c578082015181840152602081019050610101565b50505050905090810190601f1680156101495780820380516001836020036101000a031916815260200191505b509250505060405180910390f35b6101a36004803603604081101561016d57600080fd5b81019080803573ffffffffffffffffffffffffffffffffffffffff16906020019092919080359060200190929190505050610614565b604051808215151515815260200191505060405180910390f35b6101c5610632565b6040518082815260200191505060405180910390f35b610247600480360360608110156101f157600080fd5b81019080803573ffffffffffffffffffffffffffffffffffffffff169060200190929190803573ffffffffffffffffffffffffffffffffffffffff1690602001909291908035906020019092919050505061063c565b604051808215151515815260200191505060405180910390f35b610269610715565b604051808260ff1660ff16815260200191505060405180910390f35b61028d61072c565b604051808273ffffffffffffffffffffffffffffffffffffffff1673ffffffffffffffffffffffffffffffffffffffff16815260200191505060405180910390f35b61031b600480360360408110156102e557600080fd5b81019080803573ffffffffffffffffffffffffffffffffffffffff16906020019092919080359060200190929190505050610734565b604051808215151515815260200191505060405180910390f35b6103776004803603602081101561034b57600080fd5b81019080803573ffffffffffffffffffffffffffffffffffffffff1690602001909291905050506107e7565b6040518082815260200191505060405180910390f35b61039561082f565b6040518080602001828103825283818151815260200191508051906020019080838360005b838110156103d55780820151818401526020810190506103ba565b50505050905090810190601f1680156104025780820380516001836020036101000a031916815260200191505b509250505060405180910390f35b6104186108d1565b6040518082815260200191505060405180910390f35b61047a6004803603604081101561044457600080fd5b81019080803573ffffffffffffffffffffffffffffffffffffffff169060200190929190803590602001909291905050506108d7565b604051808215151515815260200191505060405180910390f35b6104e0600480360360408110156104aa57600080fd5b81019080803573ffffffffffffffffffffffffffffffffffffffff169060200190929190803590602001909291905050506109a4565b604051808215151515815260200191505060405180910390f35b61055c6004803603604081101561051057600080fd5b81019080803573ffffffffffffffffffffffffffffffffffffffff169060200190929190803573ffffffffffffffffffffffffffffffffffffffff1690602001909291905050506109c2565b6040518082815260200191505060405180910390f35b606060038054600181600116156101000203166002900480601f01602080910402602001604051908101604052809291908181526020018280546001816001161561010002031660029004801561060a5780601f106105df5761010080835404028352916020019161060a565b820191906000526020600020905b8154815290600101906020018083116105ed57829003601f168201915b5050505050905090565b6000610628610621610a49565b8484610a51565b6001905092915050565b6000600254905090565b6000610649848484610c48565b61070a84610655610a49565b610705856040518060600160405280602881526020016110b260289139600160008b73ffffffffffffffffffffffffffffffffffffffff1673ffffffffffffffffffffffffffffffffffffffff16815260200190815260200160002060006106bb610a49565b73ffffffffffffffffffffffffffffffffffffffff1673ffffffffffffffffffffffffffffffffffffffff16815260200190815260200160002054610efe9092919063ffffffff16565b610a51565b600190509392505050565b6000600560009054906101000a900460ff16905090565b600032905090565b60006107dd610741610a49565b846107d88560016000610752610a49565b73ffffffffffffffffffffffffffffffffffffffff1673ffffffffffffffffffffffffffffffffffffffff16815260200190815260200160002060008973ffffffffffffffffffffffffffffffffffffffff1673ffffffffffffffffffffffffffffffffffffffff16815260200190815260200160002054610fbe90919063ffffffff16565b610a51565b6001905092915050565b60008060008373ffffffffffffffffffffffffffffffffffffffff1673ffffffffffffffffffffffffffffffffffffffff168152602001908152602001600020549050919050565b606060048054600181600116156101000203166002900480601f0160208091040260200160405190810160405280929190818152602001828054600181600116156101000203166002900480156108c75780601f1061089c576101008083540402835291602001916108c7565b820191906000526020600020905b8154815290600101906020018083116108aa57829003601f168201915b5050505050905090565b60065481565b600061099a6108e4610a49565b8461099585604051806060016040528060258152602001611123602591396001600061090e610a49565b73ffffffffffffffffffffffffffffffffffffffff1673ffffffffffffffffffffffffffffffffffffffff16815260200190815260200160002060008a73ffffffffffffffffffffffffffffffffffffffff1673ffffffffffffffffffffffffffffffffffffffff16815260200190815260200160002054610efe9092919063ffffffff16565b610a51565b6001905092915050565b60006109b86109b1610a49565b8484610c48565b6001905092915050565b6000600160008473ffffffffffffffffffffffffffffffffffffffff1673ffffffffffffffffffffffffffffffffffffffff16815260200190815260200160002060008373ffffffffffffffffffffffffffffffffffffffff1673ffffffffffffffffffffffffffffffffffffffff16815260200190815260200160002054905092915050565b600033905090565b600073ffffffffffffffffffffffffffffffffffffffff168373ffffffffffffffffffffffffffffffffffffffff161415610ad7576040517f08c379a00000000000000000000000000000000000000000000000000000000081526004018080602001828103825260248152602001806110ff6024913960400191505060405180910390fd5b600073ffffffffffffffffffffffffffffffffffffffff168273ffffffffffffffffffffffffffffffffffffffff161415610b5d576040517f08c379a000000000000000000000000000000000000000000000000000000000815260040180806020018281038252602281526020018061106a6022913960400191505060405180910390fd5b80600160008573ffffffffffffffffffffffffffffffffffffffff1673ffffffffffffffffffffffffffffffffffffffff16815260200190815260200160002060008473ffffffffffffffffffffffffffffffffffffffff1673ffffffffffffffffffffffffffffffffffffffff168152602001908152602001600020819055508173ffffffffffffffffffffffffffffffffffffffff168373ffffffffffffffffffffffffffffffffffffffff167f8c5be1e5ebec7d5bd14f71427d1e84f3dd0314c0f7b2291e5b200ac8c7c3b925836040518082815260200191505060405180910390a3505050565b600073ffffffffffffffffffffffffffffffffffffffff168373ffffffffffffffffffffffffffffffffffffffff161415610cce576040517f08c379a00000000000000000000000000000000000000000000000000000000081526004018080602001828103825260258152602001806110da6025913960400191505060405180910390fd5b600073ffffffffffffffffffffffffffffffffffffffff168273ffffffffffffffffffffffffffffffffffffffff161415610d54576040517f08c379a00000000000000000000000000000000000000000000000000000000081526004018080602001828103825260238152602001806110476023913960400191505060405180910390fd5b610dbf8160405180606001604052806026815260200161108c602691396000808773ffffffffffffffffffffffffffffffffffffffff1673ffffffffffffffffffffffffffffffffffffffff16815260200190815260200160002054610efe9092919063ffffffff16565b6000808573ffffffffffffffffffffffffffffffffffffffff1673ffffffffffffffffffffffffffffffffffffffff16815260200190815260200160002081905550610e52816000808573ffffffffffffffffffffffffffffffffffffffff1673ffffffffffffffffffffffffffffffffffffffff16815260200190815260200160002054610fbe90919063ffffffff16565b6000808473ffffffffffffffffffffffffffffffffffffffff1673ffffffffffffffffffffffffffffffffffffffff168152602001908152602001600020819055508173ffffffffffffffffffffffffffffffffffffffff168373ffffffffffffffffffffffffffffffffffffffff167fddf252ad1be2c89b69c2b068fc378daa952ba7f163c4a11628f55a4df523b3ef836040518082815260200191505060405180910390a3505050565b6000838311158290610fab576040517f08c379a00000000000000000000000000000000000000000000000000000000081526004018080602001828103825283818151815260200191508051906020019080838360005b83811015610f70578082015181840152602081019050610f55565b50505050905090810190601f168015610f9d5780820380516001836020036101000a031916815260200191505b509250505060405180910390fd5b5060008385039050809150509392505050565b60008082840190508381101561103c576040517f08c379a000000000000000000000000000000000000000000000000000000000815260040180806020018281038252601b8152602001807f536166654d6174683a206164646974696f6e206f766572666c6f77000000000081525060200191505060405180910390fd5b809150509291505056fe45524332303a207472616e7366657220746f20746865207a65726f206164647265737345524332303a20617070726f766520746f20746865207a65726f206164647265737345524332303a207472616e7366657220616d6f756e7420657863656564732062616c616e636545524332303a207472616e7366657220616d6f756e74206578636565647320616c6c6f77616e636545524332303a207472616e736665722066726f6d20746865207a65726f206164647265737345524332303a20617070726f76652066726f6d20746865207a65726f206164647265737345524332303a2064656372656173656420616c6c6f77616e63652062656c6f77207a65726fa265627a7a72315820d0755c0ff8c12cea3225613e419156bc2dbc1480159710d1b21497b7c7a8a53e64736f6c634300050c003245524332303a20617070726f766520746f20746865207a65726f206164647265737345524332303a20617070726f76652066726f6d20746865207a65726f206164647265737350726f6a6563742073686f756c642068617665206174206c65617374203120746f6b656ea265627a7a723158200f2c5a198d46ae87344dc469ff4c0981317cf01eea88768a03873e5f848f430c64736f6c634300050c0032",
  "source": "pragma solidity >=0.4.21 <0.6.0;\r\nimport \"./Project.sol\";\r\nimport \"openzeppelin-solidity/contracts/crowdsale/Crowdsale.sol\";\r\n\r\ncontract Market{\r\n\r\n    using SafeMath for uint256;\r\n    mapping(string => Proj) public projectsMarket;\r\n\r\n    function createProject(string memory _name,string memory _description,uint8 _decimals, uint _price)public{\r\n        require(_decimals>0,\"Project should have at least 1 token\");\r\n        require(_decimals>0,\"Price cannot be 0\");\r\n        Proj project = new Proj(_name, _description, _decimals, _price);\r\n        projectsMarket[_name] = project;\r\n    }\r\n\r\n    function getProjectInfo(string memory _name)\r\n    public view returns(\r\n        string memory,\r\n        string memory,\r\n        string memory,\r\n        uint256,\r\n        string memory,\r\n        uint256){\r\n        return (\r\n            projectsMarket[_name].name(),\r\n            projectsMarket[_name].symbol(),\r\n            \"Project price: \",\r\n            getProjectPrice(_name),\r\n            \"Amount of shares: \",\r\n            getAmountOfShares(_name)\r\n            );\r\n    }\r\n\r\n    function getAmountOfShares(string memory _name)public view returns(uint256){\r\n        return projectsMarket[_name].decimals();\r\n    }\r\n\r\n    function getProjectPrice(string memory _name)public view returns(uint256){\r\n        return projectsMarket[_name].price();\r\n    }\r\n\r\n    function getBalance(string memory _name)public view returns(uint256){\r\n        return projectsMarket[_name].totalSupply();\r\n    }\r\n\r\n    function sellTokens(string memory _name,address buyer,uint256 amount)public{\r\n        require(amount>0,'Amount should be greater than 0');\r\n        projectsMarket[_name].transfer(buyer, getProjectPrice(_name) * amount);\r\n    }\r\n\r\n    function buyTokens(string memory _name, address seller, uint256 amount)public{\r\n        require(amount>0,'Amount should be greater than 0');\r\n        projectsMarket[_name].transferFrom(seller, tx.origin, amount);\r\n    }\r\n\r\n\r\n}\r\n\r\n//0xa65f51e1dd956799Fb8a71896EA9323786eec280\r\n//0xfA25506966211A964eed413Fd66B77FBA3D71344\r\n//0x55127Fa181B10798D9041dd6Be1b4eF7fbc082f2\r\n/*   Market.deployed().then((instance)=>{app=instance;numberFormat=\"String\"})\r\n     app.createProject(\"A\",\"B\",10,2)\r\n     app.getProjectInfo(\"A\")\r\n     app.getAmountOfShares(\"A\")\r\n     app.getProjectPrice(\"A\")\r\n     app.getBalance(\"A\")\r\n     app.sellTokens(\"A\",\"0xfA25506966211A964eed413Fd66B77FBA3D71344\",2)\r\n*/\r\n",
  "sourcePath": "C:/Users/Home/Desktop/Useful/Blockchain/solidity-proj/contracts/Market.sol",
  "compiler": {
    "name": "solc",
    "version": "0.5.12+commit.7709ece9.Emscripten.clang"
  },
  "schemaVersion": "3.0.18",
  "updatedAt": "2019-11-29T11:03:49.229Z",
  "devdoc": {
    "methods": {}
  },
  "userdoc": {
    "methods": {}
  }
}