{
  "contractName": "Project",
  "abi": [
    {
      "inputs": [
        {
          "internalType": "string",
          "name": "_name",
          "type": "string"
        },
        {
          "internalType": "string",
          "name": "_description",
          "type": "string"
        },
        {
          "internalType": "uint256",
          "name": "_amountOfTokens",
          "type": "uint256"
        }
      ],
      "payable": false,
      "stateMutability": "nonpayable",
      "type": "constructor"
    },
    {
      "constant": true,
      "inputs": [],
      "name": "amountOfTokens",
      "outputs": [
        {
          "internalType": "uint256",
          "name": "",
          "type": "uint256"
        }
      ],
      "payable": false,
      "stateMutability": "view",
      "type": "function"
    },
    {
      "constant": true,
      "inputs": [
        {
          "internalType": "uint256",
          "name": "",
          "type": "uint256"
        }
      ],
      "name": "projectAddress",
      "outputs": [
        {
          "internalType": "address",
          "name": "",
          "type": "address"
        }
      ],
      "payable": false,
      "stateMutability": "view",
      "type": "function"
    },
    {
      "constant": false,
      "inputs": [
        {
          "internalType": "uint256",
          "name": "newAmount",
          "type": "uint256"
        }
      ],
      "name": "setAmountOfTokens",
      "outputs": [],
      "payable": false,
      "stateMutability": "nonpayable",
      "type": "function"
    },
    {
      "constant": true,
      "inputs": [],
      "name": "getProjectInfo",
      "outputs": [
        {
          "internalType": "string",
          "name": "",
          "type": "string"
        },
        {
          "internalType": "string",
          "name": "",
          "type": "string"
        },
        {
          "internalType": "uint256",
          "name": "",
          "type": "uint256"
        }
      ],
      "payable": false,
      "stateMutability": "view",
      "type": "function"
    },
    {
      "constant": true,
      "inputs": [],
      "name": "getTokenPrice",
      "outputs": [
        {
          "internalType": "uint256",
          "name": "",
          "type": "uint256"
        }
      ],
      "payable": false,
      "stateMutability": "view",
      "type": "function"
    },
    {
      "constant": true,
      "inputs": [],
      "name": "getName",
      "outputs": [
        {
          "internalType": "string",
          "name": "",
          "type": "string"
        }
      ],
      "payable": false,
      "stateMutability": "view",
      "type": "function"
    },
    {
      "constant": true,
      "inputs": [],
      "name": "getDescription",
      "outputs": [
        {
          "internalType": "string",
          "name": "",
          "type": "string"
        }
      ],
      "payable": false,
      "stateMutability": "view",
      "type": "function"
    },
    {
      "constant": true,
      "inputs": [],
      "name": "getBalance",
      "outputs": [
        {
          "internalType": "uint256",
          "name": "",
          "type": "uint256"
        }
      ],
      "payable": false,
      "stateMutability": "view",
      "type": "function"
    }
  ],
  "bytecode": "0x608060405233600260006101000a81548173ffffffffffffffffffffffffffffffffffffffff021916908373ffffffffffffffffffffffffffffffffffffffff1602179055506113886004553480156200005857600080fd5b5060405162000d9a38038062000d9a833981810160405260608110156200007e57600080fd5b81019080805160405193929190846401000000008211156200009f57600080fd5b83820191506020820185811115620000b657600080fd5b8251866001820283011164010000000082111715620000d457600080fd5b8083526020830192505050908051906020019080838360005b838110156200010a578082015181840152602081019050620000ed565b50505050905090810190601f168015620001385780820380516001836020036101000a031916815260200191505b50604052602001805160405193929190846401000000008211156200015c57600080fd5b838201915060208201858111156200017357600080fd5b82518660018202830111640100000000821117156200019157600080fd5b8083526020830192505050908051906020019080838360005b83811015620001c7578082015181840152602081019050620001aa565b50505050905090810190601f168015620001f55780820380516001836020036101000a031916815260200191505b5060405260200180519060200190929190505050826000908051906020019062000221929190620004d8565b5081600190805190602001906200023a929190620004d8565b50806003819055506200025783836003546200026060201b60201c565b505050620005a8565b6200026a6200055f565b60056000600260009054906101000a900473ffffffffffffffffffffffffffffffffffffffff1673ffffffffffffffffffffffffffffffffffffffff1673ffffffffffffffffffffffffffffffffffffffff168152602001908152602001600020604051806060016040529081600082018054600181600116156101000203166002900480601f016020809104026020016040519081016040528092919081815260200182805460018160011615610100020316600290048015620003735780601f10620003475761010080835404028352916020019162000373565b820191906000526020600020905b8154815290600101906020018083116200035557829003601f168201915b50505050508152602001600182018054600181600116156101000203166002900480601f016020809104026020016040519081016040528092919081815260200182805460018160011615610100020316600290048015620004195780601f10620003ed5761010080835404028352916020019162000419565b820191906000526020600020905b815481529060010190602001808311620003fb57829003601f168201915b505050505081526020016002820154815250509050838160000181905250828160200181905250818160400181815250506006600260009054906101000a900473ffffffffffffffffffffffffffffffffffffffff1690806001815401808255809150509060018203906000526020600020016000909192909190916101000a81548173ffffffffffffffffffffffffffffffffffffffff021916908373ffffffffffffffffffffffffffffffffffffffff1602179055505050505050565b828054600181600116156101000203166002900490600052602060002090601f016020900481019282601f106200051b57805160ff19168380011785556200054c565b828001600101855582156200054c579182015b828111156200054b5782518255916020019190600101906200052e565b5b5090506200055b919062000580565b5090565b60405180606001604052806060815260200160608152602001600081525090565b620005a591905b80821115620005a157600081600090555060010162000587565b5090565b90565b6107e280620005b86000396000f3fe608060405234801561001057600080fd5b50600436106100885760003560e01c80631d3e78af1161005b5780631d3e78af146101cf5780634b94f50e1461023d57806367c897fe1461025b578063cac7a85d1461035157610088565b806312065fe01461008d57806313c52111146100ab57806317d7de7c146100c95780631a0925411461014c575b600080fd5b61009561037f565b6040518082815260200191505060405180910390f35b6100b361039e565b6040518082815260200191505060405180910390f35b6100d16103a4565b6040518080602001828103825283818151815260200191508051906020019080838360005b838110156101115780820151818401526020810190506100f6565b50505050905090810190601f16801561013e5780820380516001836020036101000a031916815260200191505b509250505060405180910390f35b610154610446565b6040518080602001828103825283818151815260200191508051906020019080838360005b83811015610194578082015181840152602081019050610179565b50505050905090810190601f1680156101c15780820380516001836020036101000a031916815260200191505b509250505060405180910390f35b6101fb600480360360208110156101e557600080fd5b81019080803590602001909291905050506104e8565b604051808273ffffffffffffffffffffffffffffffffffffffff1673ffffffffffffffffffffffffffffffffffffffff16815260200191505060405180910390f35b610245610524565b6040518082815260200191505060405180910390f35b61026361052e565b604051808060200180602001848152602001838103835286818151815260200191508051906020019080838360005b838110156102ad578082015181840152602081019050610292565b50505050905090810190601f1680156102da5780820380516001836020036101000a031916815260200191505b50838103825285818151815260200191508051906020019080838360005b838110156103135780820151818401526020810190506102f8565b50505050905090810190601f1680156103405780820380516001836020036101000a031916815260200191505b509550505050505060405180910390f35b61037d6004803603602081101561036757600080fd5b81019080803590602001909291905050506107a3565b005b60003073ffffffffffffffffffffffffffffffffffffffff1631905090565b60035481565b606060008054600181600116156101000203166002900480601f01602080910402602001604051908101604052809291908181526020018280546001816001161561010002031660029004801561043c5780601f106104115761010080835404028352916020019161043c565b820191906000526020600020905b81548152906001019060200180831161041f57829003601f168201915b5050505050905090565b606060018054600181600116156101000203166002900480601f0160208091040260200160405190810160405280929190818152602001828054600181600116156101000203166002900480156104de5780601f106104b3576101008083540402835291602001916104de565b820191906000526020600020905b8154815290600101906020018083116104c157829003601f168201915b5050505050905090565b600681815481106104f557fe5b906000526020600020016000915054906101000a900473ffffffffffffffffffffffffffffffffffffffff1681565b6000600454905090565b606080600060056000600260009054906101000a900473ffffffffffffffffffffffffffffffffffffffff1673ffffffffffffffffffffffffffffffffffffffff1673ffffffffffffffffffffffffffffffffffffffff16815260200190815260200160002060000160056000600260009054906101000a900473ffffffffffffffffffffffffffffffffffffffff1673ffffffffffffffffffffffffffffffffffffffff1673ffffffffffffffffffffffffffffffffffffffff16815260200190815260200160002060010160056000600260009054906101000a900473ffffffffffffffffffffffffffffffffffffffff1673ffffffffffffffffffffffffffffffffffffffff1673ffffffffffffffffffffffffffffffffffffffff16815260200190815260200160002060020154828054600181600116156101000203166002900480601f0160208091040260200160405190810160405280929190818152602001828054600181600116156101000203166002900480156106f55780601f106106ca576101008083540402835291602001916106f5565b820191906000526020600020905b8154815290600101906020018083116106d857829003601f168201915b50505050509250818054600181600116156101000203166002900480601f0160208091040260200160405190810160405280929190818152602001828054600181600116156101000203166002900480156107915780601f1061076657610100808354040283529160200191610791565b820191906000526020600020905b81548152906001019060200180831161077457829003601f168201915b50505050509150925092509250909192565b806003819055505056fea265627a7a72315820cb738c042adbe2e09173552e0a63503036b26b7a6ed7de8c70977c0fe0c731e164736f6c634300050c0032",
  "source": "pragma solidity >=0.4.21 <0.6.0;\r\n\r\ncontract Project{\r\n    string name;\r\n    string description;\r\n    address payable wallet = msg.sender;\r\n    uint256 public amountOfTokens;\r\n    uint256 tokenPrice= 5000 wei;\r\n\r\n    mapping (address => ProjectData) projectData;\r\n    address[] public projectAddress;\r\n\r\n    struct ProjectData{\r\n        string name;\r\n        string description;\r\n        uint256 amountOfTokens;\r\n    }\r\n\r\n    constructor(\r\n         string memory _name,\r\n         string memory _description,\r\n         uint256 _amountOfTokens\r\n        ) public {\r\n            name = _name;\r\n            description = _description;\r\n            amountOfTokens = _amountOfTokens;\r\n            setProjectData(_name,_description,amountOfTokens);\r\n    }\r\n\r\n    function setProjectData(string memory _name, string memory _description, uint256 _amountOfTokens) internal {\r\n        ProjectData memory data = projectData[wallet];\r\n        data.name = _name;\r\n        data.description = _description;\r\n        data.amountOfTokens = _amountOfTokens;\r\n        projectAddress.push(wallet);\r\n    }\r\n\r\n    function setAmountOfTokens(uint256 newAmount) external {\r\n        amountOfTokens = newAmount;\r\n    }\r\n\r\n    function getProjectInfo() external view returns(string memory, string memory, uint256){\r\n        return(projectData[wallet].name, projectData[wallet].description, projectData[wallet].amountOfTokens);\r\n    }\r\n\r\n    function getTokenPrice() external view returns(uint256){\r\n        return tokenPrice;\r\n    }\r\n\r\n    function getName() public view returns(string memory){\r\n        return name;\r\n    }\r\n\r\n    function getDescription() public view returns(string memory){\r\n        return description;\r\n    }\r\n\r\n    function getBalance() public view returns(uint256){\r\n        return address(this).balance;\r\n    }\r\n}",
  "sourcePath": "C:\\Users\\Home\\Desktop\\Useful\\Blockchain\\solidity-proj\\contracts\\Project.sol",
  "compiler": {
    "name": "solc",
    "version": "0.5.12+commit.7709ece9.Emscripten.clang"
  },
  "schemaVersion": "3.0.18",
  "updatedAt": "2019-11-29T10:33:17.878Z",
  "networkType": "ethereum",
  "devdoc": {
    "methods": {}
  },
  "userdoc": {
    "methods": {}
  }
}